:100000000C9463000C948B000C948B000C948B006C
:100010000C948B000C948B000C948B000C948B0034
:100020000C948B000C948B000C948B000C948B0024
:100030000C948B000C948B000C948B000C948B0014
:100040000C94200A0C948B000C94EE090C94C809B3
:100050000C948B000C948B000C948B000C948B00F4
:100060000C948B000C948B000000000024002700EF
:100070002A0000000000250028002B0000000008D6
:10008000000201000003040700000000000000005F
:1000900000000000230026002900040404040404D6
:1000A0000404020202020202030303030303010227
:1000B00004081020408001020408102001020408F6
:1000C00010206A0AF40F11241FBECFEFD8E0DEBF64
:1000D000CDBF24E0AEE6B3E001C01D92AA34B20762
:1000E000E1F713E0A0E0B1E0E6ECFEE202C005902B
:1000F0000D92AE36B107D9F710E0C2E6D0E004C0E9
:100100002197FE010E946912C136D107C9F70E94EA
:10011000BD0A0C9456170C9400008F929F92AF92D8
:10012000BF92CF92DF92EF92FF92CF93DF93A09195
:10013000350430E081113A2F8091360490E0880F29
:10014000991FAC0140575F4FC0903B04D0903C04D6
:10015000E0903D04F0903E0460E070E0CB01FA01D5
:10016000C591D49128812A2323130FC04B015C0130
:100170002FEF821A920AA20AB20A6C157D058E052B
:100180009F0570F060E070E0CB01DF91CF91FF90B0
:10019000EF90DF90CF90BF90AF909F908F90089599
:1001A000C501B401DCCFFC012481358162177307DE
:1001B00020F480819181009729F41092730383E7E2
:1001C00093E00895860F971F08950895AF92BF9208
:1001D000CF92DF92EF92FF920F931F93CF93DF9313
:1001E0006C017B018B01040F151FEB015E01AE1842
:1001F000BF08C017D10759F06991D601ED91FC9164
:100200000190F081E02DC6010995892B79F7C50190
:10021000DF91CF911F910F91FF90EF90DF90CF90E2
:10022000BF90AF900895FC01538D448D252F30E091
:10023000842F90E0821B930B541710F0CF960895F3
:1002400001970895FC01918D828D981761F0A28D20
:10025000AE0FBF2FB11D5D968C91928D9F5F9F73E6
:10026000928F90E008958FEF9FEF08952FB7F89445
:100270008091760390917703A0917803B0917903F0
:100280002FBF8093990390939A03A0939B03B093FD
:100290009C0381E993E00E94220197FF26C02FB7BB
:1002A000F8948091760390917703A0917803B091B0
:1002B00079032FBF4091990350919A0360919B035A
:1002C00070919C03841B950BA60BB70B4091950373
:1002D0005091960360919703709198038417950746
:1002E000A607B707B0F28FEF9FEF0895FC01918D3D
:1002F000828D981731F0828DE80FF11D858D90E089
:1003000008958FEF9FEF0895FC01918D228D892F25
:1003100090E0805C9F4F821B91098F73992708950D
:1003200081E993E00E94840121E0892B09F420E017
:10033000822F089580E090E0892B29F00E9490019F
:1003400081110C9400000895FC01A48DA80FB92F11
:10035000B11DA35ABF4F2C91848D90E001968F73ED
:100360009927848FA689B7892C93A089B1898C910C
:10037000837080648C93938D848D981306C002885B
:10038000F389E02D80818F7D80830895EF92FF9225
:100390000F931F93CF93DF93EC0181E0888F9B8DA8
:1003A0008C8D98131AC0E889F989808185FF15C062
:1003B0009FB7F894EE89FF896083E889F989808185
:1003C0008370806480839FBF81E090E0DF91CF9154
:1003D0001F910F91FF90EF900895F62E0B8D10E076
:1003E0000F5F1F4F0F731127E02E8C8D8E110CC0E5
:1003F0000FB607FCFACFE889F989808185FFF5CF30
:10040000CE010E94A401F1CFEB8DEC0FFD2FF11D69
:10041000E35AFF4FF0829FB7F8940B8FEA89FB896C
:1004200080818062CFCFCF93DF93EC01888D8823CA
:10043000B9F0AA89BB89E889F9898C9185FD03C047
:10044000808186FD0DC00FB607FCF7CF8C9185FF2C
:10045000F2CF808185FFEDCFCE010E94A401E9CFCC
:10046000DF91CF910895833081F028F4813099F0A5
:100470008230A9F008958730A9F08830C9F084301F
:10048000B1F4809180008F7D03C0809180008F77D0
:1004900080938000089584B58F7784BD089584B5D6
:1004A0008F7DFBCF8091B0008F778093B00008954F
:1004B0008091B0008F7DF9CFCF93DF93282F30E06C
:1004C000F901E458FF4F8491F901E255FF4FD491AF
:1004D000F901E656FF4FC491CC23A1F081110E948F
:1004E0003302EC2FF0E0EE0FFF1FE057FF4FA59116
:1004F000B491EC91ED2381E090E009F480E0DF918C
:10050000CF91089580E090E0FACF1F93CF93DF93CF
:10051000282F30E0F901E458FF4F8491F901E255AA
:10052000FF4FD491F901E656FF4FC491CC23A9F0B7
:10053000162F81110E943302EC2FF0E0EE0FFF1F07
:10054000EE58FF4FA591B4918FB7F894EC9111112B
:1005500008C0D095DE23DC938FBFDF91CF911F9130
:100560000895DE2BF8CFCF93DF9390E0FC01E255A6
:10057000FF4F249186569F4FFC0184918823C9F038
:1005800090E0880F991FFC01E859FF4FA591B491A5
:10059000FC01EE58FF4FC591D49161110DC09FB77A
:1005A000F8948C91209582238C938881282328832A
:1005B0009FBFDF91CF910895623051F49FB7F894B7
:1005C0003C91822F809583238C93E8812E2BEFCF53
:1005D0008FB7F894EC912E2B2C938FBFEACF3FB7B7
:1005E000F89480916F0390917003A0917103B09182
:1005F000720326B5A89B05C02F3F19F00196A11DD7
:10060000B11D3FBFBA2FA92F982F8827BC01CD015C
:10061000620F711D811D911D42E0660F771F881FBB
:10062000991F4A95D1F708958F929F92AF92BF92EA
:10063000CF92DF92EF92FF924B015C010E94EF029A
:100640006B017C010E94EF026C197D098E099F09E4
:10065000683E734081059105A8F321E0821A910854
:10066000A108B10888EEC80E83E0D81EE11CF11C79
:1006700081149104A104B10429F7FF90EF90DF9059
:10068000CF90BF90AF909F908F900895CF92DF92C0
:10069000EF92FF920F931F93CF93DF93CDB7DEB707
:1006A000C054D1400FB6F894DEBF0FBECDBF2FB7F8
:1006B000F8948091760390917703A0917803B0919C
:1006C00079032FBF40913704509138046091390469
:1006D00070913A048C019D01041B150B260B370BFE
:1006E000B901A801403D57406105710590F4809122
:1006F0003F04C05CDE4F0FB6F894DEBF0FBECDBF27
:10070000DF91CF911F910F91FF90EF90DF90CF90ED
:1007100008958093370490933804A0933904B093DC
:100720003A04109232041092310410923004109264
:100730002F0410922E0461E0809133040E94850200
:100740006AEF70E080E090E00E94140361E0809125
:1007500033040E94B30260E0809133040E9485025A
:1007600064E170E080E090E00E941403F89461E09E
:10077000809133040E9485028BE990E00197F1F7A4
:1007800062E0809133040E94B30283E290E001971B
:10079000F1F780E00E948D00672B682B692B29F40C
:1007A00010923F04789480E0A4CF81E00E948D00F5
:1007B000672B682B692BA1F38E010F5F1F4F6E0112
:1007C0002FEBC21A2EEFD20A780180E00E948D0032
:1007D000F701608371838283938381E00E948D009F
:1007E000F7016483758386839783F8E0EF0EF11C2D
:1007F000EC14FD0451F7789430E020E0F801C0805B
:10080000D180E280F3804481558166817781C11473
:10081000D104E104F10429F0411551056105710588
:1008200019F410923F04BFCFF90183E0F595E795E5
:100830008A95E1F7E25DFB4F8081880FC416D506EB
:10084000E606F70610F180832F5F3F4F085F1F4FCA
:100850002832310599F64091320420912E0480917E
:100860002F04280F3327331F80913004280F311DA8
:1008700080913104820F932F911D992748171906F3
:1008800081F681E080933F0434CF8160DCCFFC01AE
:1008900080819181009711F00C940B1308950F93B0
:1008A0001F93CF93DF93CDB7DEB7C059D1400FB6BA
:1008B000F894DEBF0FBECDBF1A821982FE013396B7
:1008C0002EE831E0DF01A9011D9241505040E1F7CF
:1008D0008E010F5F1F4F81309105D1F12DE431E082
:1008E00082309105B9F129E231E08330910591F12F
:1008F0000097E9F586E291E09F938F931F921F92F4
:100900007F936F938DE891E09F938F931F930F9345
:100910000E94B5140FB6F894DEBF0FBECDBFF8012C
:1009200001900020E9F73197AF01401B510BB8014E
:1009300081E993E00E94E600C057DE4F0FB6F894BD
:10094000DEBF0FBECDBFDF91CF911F910F910895F4
:100950002BE731E03F932F939F938F938EEA91E0A3
:100960009F938F931F930F930E94B514D3CF26E2CA
:1009700031E0F0CF0F931F93CF93DF938C01EB0106
:10098000FC01808191810097E1F068817981611596
:100990007105A9F0428153812C813D814217530793
:1009A00070F00E94AE148C819D81F8019583848340
:1009B0001D821C82DF91CF911F910F9108950E949B
:1009C0000B1388819981F801918380838A819B81AF
:1009D000938382838C819D8195838483198218827D
:1009E0001B821A82E5CF0F931F93CF93DF93EC0105
:1009F00088819981009759F02A813B812617370712
:100A000030F081E0DF91CF911F910F9108958B011C
:100A10006F5F7F4F0E949413009759F099838883EA
:100A20001B830A832C813D81232B59F7FC01108203
:100A3000E8CF80E0E7CFEF92FF920F931F93CF9321
:100A4000DF9300D0CDB7DEB78C0169831A82FC0139
:100A5000E480F580FFEFEF1AFF0AB7010E94F3046C
:100A6000882381F0F8012081318184819581BE0144
:100A70006F5F7F4F820F931F0E94AE14F801F582C3
:100A8000E48281E00F900F90DF91CF911F910F9141
:100A9000FF90EF900895EF92FF920F931F93CF93E3
:100AA000DF93EC017B018A01BA010E94F3042881E3
:100AB0003981811114C02115310519F0C9010E9435
:100AC0000B13198218821D821C821B821A82CE018E
:100AD000DF91CF911F910F91FF90EF9008951D83AB
:100AE0000C83B701C9010E94AE14F1CFCF93DF93FD
:100AF000EC01FB018617970749F060817181611550
:100B0000710541F0448155810E944B05CE01DF9172
:100B1000CF91089588819981009711F00E940B135D
:100B2000198218821D821C821B821A82EFCFCF93FA
:100B3000DF9300D0CDB7DEB7FC01118210821382A3
:100B400012821582148269831A82BE016F5F7F4F01
:100B5000FB0101900020E9F73197AF01461B570BCD
:100B60000E944B050F900F90DF91CF910895FC01EB
:100B7000118210821382128215821482FB0101906D
:100B80000020E9F73197AF01461B570B0C944B053A
:100B90000F931F93CF93DF93EC018B01CB010E9446
:100BA0008714815691098A31910508F05EC0FC01D5
:100BB000E452FA4F0C946912F60535060B060F063F
:100BC000350635063506350635063506350616066C
:100BD0003506350635061A06350635061E0635066F
:100BE0002206350626062A0635062E06CE010E9466
:100BF0005E14EC01C8010E945F14892B31F491E06E
:100C000080E0CD2BB9F5C92FD82FCE01DF91CF9140
:100C10001F910F910895CE010E947214EACFE097C0
:100C200091E080E02A97F0F090E01CC0CE010E9495
:100C30005F14DFCFCE010E947A14DBCFCE010E9479
:100C40005F10D7CFCE010E945B14D3CFCE010E949C
:100C50005114CFCFCE010E946614CBCF91E080E03B
:100C6000CD2B11F7C92FD82FC5CF91E080E00C17FD
:100C70001D0749F290E0C7CFCF92DF92EF92FF922B
:100C80000F931F93CF93DF938C01FB017A01818136
:100C9000C1E0D0E08E3519F43196D0E0C0E09F017C
:100CA0002F5F3F4F2E153F0580F581816281853290
:100CB000A1F46F0142E0C40ED11C70E0C8010E9493
:100CC000C805892BD9F0CE01DF91CF911F910F91EB
:100CD000FF90EF90DF90CF90089590E06D3281F417
:100CE0006F0143E0C40ED11CCE14DF0448F4081792
:100CF000190724F08381801711062CF7F601CFCF56
:100D00000817190701F36901F9CF81E0C827DBCF84
:100D1000FC01DB013C913E32A1F03B3539F035322C
:100D200049F411966C9170E00C94C805415051093A
:100D30000C943C0681E090E03E171F0621F080E015
:100D4000089581E090E00895682F880F770B8AE777
:100D500093E00E943610DC01FC0131968C918532C3
:100D600021F08B3561F0CF01089511968C91119788
:100D7000FD0132968111F7CF8DEF0E94A4061196E6
:100D80008C9111978E3511F4FD013296808181117D
:100D900002C08CEFF2CFDF0111969181853211F400
:100DA000911111968C91FD018D3581F73196DBCF34
:100DB0006F927F928F929F92AF92BF92CF92DF926B
:100DC000EF92FF920F931F93CF93DF938C017A01E1
:100DD000EB01D7018C91853209F4B6C04CF588231C
:100DE00009F492C0843209F452C1C7010E94AB06D3
:100DF0006C01F80185819681C817D90748F488816C
:100E0000A601B70190E00E94880621E0892B09F431
:100E100020E0D6018C918B3209F495C10CF044C1CD
:100E20008A3209F47CC1222309F4C5C02196DDC0B1
:100E30008832B9F18932C9F6A7014F5F5F4FD801F7
:100E40001B96ED91FC91CF010197EE0FFF1FEE0F66
:100E5000FF1FE00FF11F97FD75C03497A784B0887E
:100E6000BFEFAB16BB0609F06BC0880F991F880F48
:100E7000991F6801C80ED91EF601858596859E01C9
:100E8000281B390B308B2787BE01C8010E94D8066A
:100E9000EC01892BC9F5D6015096BC92AE921F97F2
:100EA00033C0F8018385948511964C91FC01EE0FB7
:100EB000FF1FEE0FFF1F9C012F5F3F4F4932A1F52F
:100EC000A7014E5F5F4F80971CF08AEF0E94A40637
:100ED000E00FF11FD687C5878EEF9FEF908B878736
:100EE000F80134872387BE01C8010E94D806EC01AF
:100EF000892B51F4D8011B968D919C911C970197D9
:100F00001C969C938E931B97CE01DF91CF911F91DE
:100F10000F91FF90EF90DF90CF90BF90AF909F9098
:100F20008F907F906F900895A7014F5F5F4F8097DC
:100F300064F6E00FF11FD687C5878FEF9FEFCECF06
:100F4000019789CF8EEFC2CFF7018181823629F1D7
:100F5000863609F451C090E09C01205331092A30B3
:100F6000310508F042CFC19797FD15C0D8011B96F7
:100F70002D913C918217930774F4880F991F880F65
:100F8000991FF801E80FF91FC784D088BFEFCB166F
:100F9000DB0609F05FC08FEF99CF12962C91129764
:100FA000222321F013963C91311102C08BEF8ECF9A
:100FB0008881281719F0D0E0C0E0A6CFD801159697
:100FC000ED91FC9181E090E0AE014F5F5F4F4E17D5
:100FD0005F0788F7698136130AC0019759F4229692
:100FE00051F36701B4E0CB0ED11C7601F2CE26138B
:100FF00001C00196EA01E8CF5701E2E0AE0EB11C54
:1010000012968C918B3511F089EF60CFC5010E944B
:10101000AB066C01F801818192818C179D07C1F0AC
:10102000FE01319780817601F1E0EF1AF108A70106
:10103000B50190E00E943C06892B09F0BCCF888165
:10104000A701B50190E00E943C06892B71F6B3CF51
:1010500080E0E9CFD80115968D919C918C1B9D0B5A
:101060008C159D0508F4A7CFA601BE018585968540
:101070000E948F14892B09F09ECFCC0DDD1D209787
:1010800009F499CF6701B2E0CB0ED11CAECFF701C6
:1010900081818111AACED80115968D919C918C17D2
:1010A0009D0709F431CF87CF8D32A9F08F3309F036
:1010B000BACEEFEFCE1ADE0A222309F496CFA601AC
:1010C000BE016F5F7F4FC8010E94D806009709F4E8
:1010D0008CCFEC0119CF4E015601BFEFAB1ABB0A02
:1010E0003401A501B401C8010E94D806EC01892B86
:1010F00009F00ACFD80115968D919C918816990612
:1011000008F059CFBFEF8B1A9B0AF3018081A6012B
:10111000B70190E00E948806892B11F74CCF960109
:10112000A701BE01C801DF91CF911F910F91FF90E0
:10113000EF90DF90CF90BF90AF909F908F907F9077
:101140006F900C948409222309F435CFBE016F5FA0
:101150007F4F9601A701E6CFCF92DF92FF920F93C8
:101160001F93CF93DF9300D000D0CDB7DEB79A8323
:1011700089837C836B838AE793E00E941610F82EA4
:10118000E981FA81882371F080838F2D0F900F9071
:101190000F900F90DF91CF911F910F91FF90DF90F3
:1011A000CF900895018112810115110519F488EF7E
:1011B0000E94A406E981FA8183819481EB81FC81FC
:1011C0002081D12CC12C2E3531F43196FC83EB8358
:1011D000CC24C394D12C800F911FE981FA8196838E
:1011E0008583E981FA81148613864B815C81B8017D
:1011F000CF010E94D8060097A1F0E981FA812181F0
:101200003281A801421B530B50874783801B910BEF
:101210009287818781E08083FF24F394B6CF8C018D
:10122000E0CFC8010196E981FA8125813681021754
:10123000130718F4C114D10491F3E981FA811082E3
:10124000A4CFCF93DF93CDB7DEB7CD58D1090FB67A
:10125000F894DEBF0FBECDBF1982FC0101900020C3
:10126000E9F73197E81BF90B9B838A83FD83EC83B5
:10127000CE0101960E94AC0891E018160CF090E0A7
:10128000892FC357DF4F0FB6F894DEBF0FBECDBF17
:10129000DF91CF910895CF93DF93EB0163ED71E080
:1012A0000E942109882339F081E02C813D8125317C
:1012B000310509F080E0DF91CF910895CF93DF935E
:1012C000EB016FE072E00E942109882339F081E090
:1012D0002C813D812230310509F080E0DF91CF91F2
:1012E0000895CF93DF93EB0162E172E00E94210940
:1012F000882339F081E02C813D812430310509F0CB
:1013000080E0DF91CF9108956F927F928F929F92AC
:10131000AF92BF92CF92DF92EF92FF920F931F9303
:10132000CF93DF935C016B014A017901FC01658079
:101330007680EB018E010C191D09FE01C615D7053B
:1013400048F421968081A701B40190E00E948806AC
:10135000892B81F7FFEFEF1AFF0AA701B601600F93
:10136000711FC5010E94D806009719F40150110998
:10137000A0F7DF91CF911F910F91FF90EF90DF9039
:10138000CF90BF90AF909F908F907F906F90089577
:101390001F920F920FB60F9211242F933F934F93EA
:1013A0005F936F937F938F939F93AF93BF93EF93CD
:1013B000FF9381E993E00E94A401FF91EF91BF9117
:1013C000AF919F918F917F916F915F914F913F91DD
:1013D0002F910F900FBE0F901F9018951F920F9294
:1013E0000FB60F9211242F938F939F93EF93FF9338
:1013F000E091A103F091A2038081E091A703F09115
:10140000A80382FD1BC090818091AA038F5F8F7318
:101410002091AB03821741F0E091AA03F0E0EF5670
:10142000FC4F958F8093AA03FF91EF919F918F912D
:101430002F910F900FBE0F901F9018958081F4CFC1
:101440001F920F920FB60F9211242F933F938F93F9
:101450009F93AF93BF938091760390917703A09170
:101460007803B091790330916E0323E0230F2D3779
:1014700058F50196A11DB11D20936E03809376034C
:1014800090937703A0937803B093790380916F03CF
:1014900090917003A0917103B09172030196A11D08
:1014A000B11D80936F0390937003A0937103B09369
:1014B0007203BF91AF919F918F913F912F910F90A8
:1014C0000FBE0F901F90189526E8230F0296A11DBE
:1014D000B11DD2CFE1E9F3E01382128288EE93E0EE
:1014E000A0E0B0E084839583A683B78388E191E090
:1014F0009183808385EC90E09587848784EC90E0ED
:101500009787868780EC90E0918B808B81EC90E0D0
:10151000938B828B82EC90E0958B848B86EC90E0B1
:10152000978B868B118E128E138E148E6BE172E068
:1015300080E494E00E94B705AEE2B4E08EE0159638
:101540008C93159786E116968C931697ECEBF0E04A
:10155000E4911796EC931797E8EAF0E0E491189677
:10156000EC93189740E85EE360E070E01D964D93C1
:101570005D936D937C9350970895CF93DF93CDB790
:10158000DEB7C058D1090FB6F894DEBF0FBECDBF8D
:10159000789484B5826084BD84B5816084BD85B54E
:1015A000826085BD85B5816085BD80916E0081605A
:1015B00080936E0010928100809181008260809300
:1015C0008100809181008160809381008091800002
:1015D0008160809380008091B10084608093B1002D
:1015E0008091B00081608093B00080917A00846027
:1015F00080937A0080917A00826080937A00809153
:101600007A00816080937A0080917A00806880936C
:101610007A001092C10081E090E00E946F1221E3F5
:10162000DC012C939093750380937403ECEBF0E052
:101630008491E8EAF0E0E4919EE09093330496E12F
:101640009093340480933504E093360480E89EE35D
:10165000A0E0B0E080933B0490933C04A0933D0451
:10166000B0933E0462E08EE00E94B30280E398EF04
:10167000AFEFBFEF8093370490933804A093390401
:10168000B0933A04E091A103F091A20382E0808339
:10169000E0919D03F0919E031082E0919F03F091F1
:1016A000A0038FEC80831092A903E091A503F09131
:1016B000A60386E08083E091A303F091A4038081D8
:1016C00080618083E091A303F091A403808188600E
:1016D0008083E091A303F091A403808180688083DC
:1016E000E091A303F091A40380818F7D80838AE041
:1016F00090E0A0E0B0E08093950390939603A093D0
:101700009703B093980360E08EE00E94B30260E01C
:101710008FE00E94B30260E082E10E94B30261E0C8
:1017200086E00E94B30261E088E00E94B30261E0BB
:101730008AE00E94B30261E08CE00E94B30261E0A3
:101740008DE00E94B302FE0131961F01CE01039687
:10175000EB969FAF8EAFEB9740907403509075035C
:1017600081E993E00E948401181619060CF0C5C1A6
:1017700068EE73E080E090E00E94140368E573E097
:10178000CE018D589F4F0E94B70581E993E00E94DA
:10179000840118161906FCF460E08DE00E948502B1
:1017A00068E573E0C1010E94B7050E94360197FD0C
:1017B00005C0682FC1010E941B05F7CFB101CE0102
:1017C0008D589F4F0E94BA04C1010E94470461E0F6
:1017D0008DE00E9485021A82198286E2EB96AEADF8
:1017E000BFADEB971D928A95E9F7E9964EAD5FADD7
:1017F000E997E5966EAD7FADE597F101CF018219CE
:1018000093098417950758F4DB019D91BD018191DF
:101810009F0121503109890FD9018C93EFCF2B966D
:101820001FAE1EAE2B972D961FAE1EAE2D972F9678
:101830001FAE1EAE2F97BE016D587F4FCE01875B46
:101840009F4F0E94760586E0E6E0F1E0DE01AF5BA7
:10185000BF4F01900D928A95E1F75E01B1E4AB0EA6
:10186000B11CF12CE12C35018E01075D1F4FF501F4
:10187000C190D1905F011AA619A61CA61BA61EA690
:101880001DA6BE01675B7F4FC8010E947605B801A7
:10189000C101F6010995982EC8010E9447049110D4
:1018A0000DC0FFEFEF1AFF0A23E0E216F104F9F68C
:1018B0006EE172E081E090E00E944F04CE01875B10
:1018C0009F4F0E944704992009F412C181E0E81655
:1018D000F10409F051C180E991E00E946F123C01CE
:1018E000D2018C91813309F0D0C00E944603882335
:1018F00041F0809134048B3059F018F085518230DA
:1019000028F1812C912C30ECA32E3FE7B32E09C097
:1019100060912E0470E090E080E00E9468104B011E
:101920005C010E944603882309F41FC1809134049E
:101930008B3069F120F08551823008F4EBC0C12C66
:10194000D12C20ECE22E2FE7F22E2AC060912E043B
:1019500070E090E080E00E94681020E030E040E815
:1019600053E40E94C9106B017C0160912F0470E068
:1019700090E080E00E946A10A70196010E94C211C7
:101980002DEC3CEC4CEC5DE30E94C910C8CF60919B
:10199000300470E090E080E00E9468106B017C01F0
:1019A000A5019401C501B4010E9464128111DDC03A
:1019B000A7019601C701B6010E9464128111D5C02A
:1019C0008CE00E945C02EC968FAFEC97ED969FAF97
:1019D000ED978AE00E945C02EE968FAFEE97EF964D
:1019E0009FAFEF9788E00E945C02C158DF4F888369
:1019F000CF57D040C058DF4F9883C058D04086E0C2
:101A00000E945C02182F092F82E10E945C02ED9671
:101A1000BFADED97BF93EC96EFADEC97EF93EF96DC
:101A2000FFADEF97FF93EE962FADEE972F93C05833
:101A3000DF4FA881C058D040AF93C158DF4FB88165
:101A4000CF57D040BF930F931F939F938F93C501A0
:101A5000B4010E942E127F936F93C701B6010E94BA
:101A60002E127F936F9383E292E09F938F937F92E6
:101A70006F920E94B514B30190E080E00E944F0481
:101A80000FB6F894DEBF0FBECDBFD2018C9182336A
:101A900061F58CE00E945C02D82EC92E8AE00E947B
:101AA0005C02F82EE92E88E00E945C02182F092FB4
:101AB00086E00E945C02CF92DF92EF92FF920F933A
:101AC0001F939F938F938FEE92E09F938F937F92BC
:101AD0006F920E94B514B30190E080E00E944F0421
:101AE0000FB6F894DEBF0FBECDBFC3010E940B132B
:101AF000CE018D589F4F0E94470480E090E0892BD3
:101B000009F42ACE0E949001882309F41CCE0E9479
:101B1000000019CE10913004612F6F7770E090E0D3
:101B200080E00E946A1020E030E040E853E40E9428
:101B3000C9106B017C016091310470E090E080E09D
:101B40000E946A10A70196010E94C2112DEC3CEC84
:101B50004CEC5DE30E94C9106B017C0117FF20CFA4
:101B6000F7FAF094F7F8F0941BCF6EE172E082E0A0
:101B700090E00E944F0489CFC7018D7F892B09F027
:101B8000B7CF68E573E0CE0183599F4F0E94B70538
:101B900068E573E0CE0189599F4F0E94B7051AA6E8
:101BA00019A61CA61BA61EA61DA6BE016D587F4F1A
:101BB000C8010E947605D12CC12CB12C8DA59EA503
:101BC000C816D90618F5B601C8010E94D300DC0179
:101BD0008C918A33C9F0B601C801B1100DC00E94C2
:101BE000D300FC016081CE0183599F4F0E941B05E9
:101BF000BFEFCB1ADB0AE2CF0E94D300DC016C916D
:101C0000CE0189599F4FF2CFB92CF2CFC8010E9463
:101C10004704E114F10409F570E060E0CE01895950
:101C20009F4F0E94D300FC01D080F12CE12C8091C9
:101C3000440490914504E816F90608F0A6C1B701DE
:101C400080E494E00E94D300DC018C91D81609F462
:101C50009AC1BFEFEB1AFB0AEACFF2E0EF16F104EC
:101C600009F0B7C1D2018C91823309F085C1A396E6
:101C70001FAE1EAEA397A5961FAE1EAEA597A79644
:101C80001FAE1EAEA797BE0169597F4FCE018F5977
:101C90009F4F0E94760568E573E0C8010E94B70572
:101CA00068E573E0CE018F960E94B70568E573E0A2
:101CB000CE01C5960E94B70568E573E0CE01CB96CC
:101CC0000E94B70588E0ECE0F1E0DE01AF5BBF4FBA
:101CD00001900D928A95E1F768E573E0CE01855A8F
:101CE0009F4F0E94B705F12CE12CD12CC12C96E01E
:101CF000B92EA7968EAD9FADA797E816F90608F402
:101D000053C07801B12CA12C552453948DA59EA5C8
:101D10008A159B0508F4E1C065E573E0CE018B5A96
:101D20009F4F0E94B70567E573E0CE01815B9F4F2F
:101D30000E94B705D12CC12C812CD70114968D910E
:101D40009C91C816D90608F093C0B601C7010E943D
:101D5000D300FC0180818D3209F488C0B601C7012F
:101D60000E94D300DC018C918032D1F0B601C70112
:101D700081106CC00E94D300FC016081CE01875BA2
:101D80009F4F0E949705BE01675B7F4FCE018B5A24
:101D90009F4F0E94BA04CE01875B9F4F0E94470469
:101DA000BFEFCB1ADB0AC9CFB701CE018F599F4FC6
:101DB0000E94D300FC0180818C32E1F4BC9CC00104
:101DC000BD9C900D1124BE01655A7F4F800F911F5D
:101DD0000E94760550E040E068E573E0CE01855A48
:101DE0009F4F0E944B05FFEFCF1ADF0AFFEFEF1A5C
:101DF000FF0A7FCFB701CE018F599F4F0E94D300BA
:101E0000DC018C918D35D1F2B701CE018F599F4FF6
:101E10000E94D300FC018081803241F3B701CE01E2
:101E20008F599F4F0E94D300DC018C918B35F1F2CA
:101E3000B701CE018F599F4F0E94D300FC016081F2
:101E4000CE01855A9F4F0E941B05D0CF0E94D30020
:101E5000DC016C91CE01875B9F4F0E949705BE010C
:101E6000675B7F4FCE01815B9F4F93CF892C98CFCB
:101E700065968EAD9FAD6597892B61F067E573E040
:101E800061968EAD9FAD61970E94A514DD24D39419
:101E9000892B09F0D12C67968EAD9FAD67970E9474
:101EA000F80F6D2D6525FC013197EE0FFF1FE60D34
:101EB000F71D80810E948502CE01815B9F4F0E94A9
:101EC0004704CE018B5A9F4F0E944704EFEFAE1A92
:101ED000BE0AF6E0EF0EF11C19CFCE01855A9F4FD6
:101EE0000E944704CE01CB960E944704CE01C596BE
:101EF0000E944704CE018F960E944704C8010E94A9
:101F00004704CE018F599F4F0E9447041AA619A675
:101F1000FE01BB968EE0DF011D928A95E9F78CE009
:101F20000E945C02B82EA92E8AE00E945C02D82E84
:101F3000C92E88E00E945C02F82EE92E86E00E94FD
:101F40005C02AF92BF92CF92DF92EF92FF929F938B
:101F50008F9389E593E09F938F931F930F930E9434
:101F6000B514B80190E080E00E944F040FB6F894D9
:101F7000DEBF0FBECDBF2DC06EE172E083E090E00A
:101F80000E944F0426C0D201DC921AA619A6FE01B7
:101F9000BB9687E0DF011D928A95E9F7F201808107
:101FA000282F082E000C330B3F938F9386E493E089
:101FB0009F938F931F930F930E94B514B80190E0E5
:101FC00080E00E944F040F900F900F900F900F90A1
:101FD0000F90CE0189599F4F0E944704CE0183592B
:101FE0009F4F0E94470484CD80E494E00C94470402
:101FF000FC0188279927E89421912032E9F32930C0
:1020000010F02E30C8F32B3241F02D3239F46894A1
:1020100004C00E945710820F911D219120532A3035
:10202000C0F31EF4909581959F4F0895DC012D9289
:102030003D924D925D926D927D928D929D92AD9268
:10204000BD92CD92DD92ED92FD920D931D93CD93B5
:10205000DD93FF91EF918DB78D938EB78D938FB7F1
:102060008D93ED93FD93882799270994DC01CB018B
:1020700081309105811D2D903D904D905D906D902A
:102080007D908D909D90AD90BD90CD90DD90ED9028
:10209000FD900D911D91CD91DD91ED91FD910D90F2
:1020A000F894FEBF0FBEEDBFED91FD9109947AE06B
:1020B000979F902D879F802D910D11240895911148
:1020C0000C943611803219F089508550C8F7089564
:1020D000E89409C097FB3EF49095809570956195C2
:1020E0007F4F8F4F9F4F9923A9F0F92F96E9BB2778
:1020F0009395F695879577956795B795F111F8CFF4
:10210000FAF4BB0F11F460FF1BC06F5F7F4F8F4F5E
:102110009F4F16C0882311F096E911C0772321F054
:102120009EE8872F762F05C0662371F096E8862FEC
:1021300070E060E02AF09A95660F771F881FDAF743
:10214000880F9695879597F90895990F0008550F70
:10215000AA0BE0E8FEEF16161706E807F907C0F02D
:1021600012161306E407F50798F0621B730B840B35
:10217000950B39F40A2661F0232B242B252B21F40F
:1021800008950A2609F4A140A6958FEF811D811DAF
:1021900008950E94DC100C9450110E94421138F0F6
:1021A0000E94491120F0952311F00C9439110C94E0
:1021B0003F1111240C9484110E94611170F3959FBA
:1021C000C1F3950F50E0551F629FF001729FBB272E
:1021D000F00DB11D639FAA27F00DB11DAA1F649FCA
:1021E0006627B00DA11D661F829F2227B00DA11D7D
:1021F000621F739FB00DA11D621F839FA00D611D03
:10220000221F749F3327A00D611D231F849F600D23
:10221000211D822F762F6A2F11249F5750409AF04C
:10222000F1F088234AF0EE0FFF1FBB1F661F771FD8
:10223000881F91505040A9F79E3F510580F00C94A3
:1022400039110C9484115F3FE4F3983ED4F38695E2
:1022500077956795B795F795E7959F5FC1F7FE2B43
:10226000880F911D9695879597F908959927882746
:10227000089597F99F6780E870E060E008959FEF08
:1022800080EC089500240A9416161706180609060D
:10229000089500240A9412161306140605060895DC
:1022A000092E0394000C11F4882352F0BB0F40F464
:1022B000BF2B11F460FF04C06F5F7F4F8F4F9F4FA4
:1022C000089557FD9058440F551F59F05F3F71F026
:1022D0004795880F97FB991F61F09F3F79F087958D
:1022E0000895121613061406551FF2CF4695F1DF16
:1022F00008C0161617061806991FF1CF86957105A6
:10230000610508940895E894BB2766277727CB01D9
:1023100097F908952F923F924F925F926F927F921A
:102320008F929F92AF92BF92CF92DF92EF92FF92E5
:102330000F931F93CF93DF93CDB7DEB7CA1BDB0B91
:102340000FB6F894DEBF0FBECDBF09942A88398836
:1023500048885F846E847D848C849B84AA84B9843D
:10236000C884DF80EE80FD800C811B81AA81B98149
:10237000CE0FD11D0FB6F894DEBF0FBECDBFED015D
:1023800008955058BB27AA270E94D9110C945011C8
:102390000E94421138F00E94491120F039F49F3F09
:1023A00019F426F40C943F110EF4E095E7FB0C941D
:1023B0003911E92F0E94611158F3BA1762077307A8
:1023C0008407950720F079F4A6F50C9483110EF498
:1023D000E0950B2EBA2FA02D0B01B90190010C0135
:1023E000CA01A0011124FF27591B99F0593F50F44D
:1023F000503E68F11A16F040A22F232F342F4427A5
:10240000585FF3CF469537952795A795F04053959C
:10241000C9F77EF41F16BA0B620B730B840BBAF06C
:102420009150A1F0FF0FBB1F661F771F881FC2F7D7
:102430000EC0BA0F621F731F841F48F487957795EB
:102440006795B795F7959E3F08F0B0CF9395880FA5
:1024500008F09927EE0F9795879508950E943512F9
:102460006894B1110C94841108950E94691188F048
:102470009F5798F0B92F9927B751B0F0E1F0660F48
:10248000771F881F991F1AF0BA95C9F714C0B13089
:1024900091F00E948311B1E008950C948311672F8D
:1024A000782F8827B85F39F0B93FCCF386957795B8
:1024B0006795B395D9F73EF49095809570956195A1
:1024C0007F4F8F4F9F4F08950E94A510880B990B47
:1024D0000895EE0FFF1F0590F491E02D09940F93DE
:1024E0001F93CF93DF938230910510F482E090E048
:1024F000E0914804F091490430E020E0B0E0A0E031
:10250000309799F42115310509F44AC0281B390B7D
:1025100024303105D8F58A819B816115710589F1D7
:10252000FB0193838283FE0111C0408151810281AE
:10253000138148175907E0F04817590799F4109785
:1025400061F012960C93129713961C933296CF015A
:10255000DF91CF911F910F9108950093480410933C
:102560004904F4CF2115310551F04217530738F0D3
:10257000A901DB019A01BD01DF01F801C1CFEF0123
:10258000F9CF9093490480934804CDCFFE01E20F28
:10259000F31F819391932250310939832883D7CF38
:1025A0002091460430914704232B41F420910201ED
:1025B0003091030130934704209346042091000199
:1025C000309101012115310541F42DB73EB74091FD
:1025D000040150910501241B350BE0914604F09154
:1025E0004704E217F307A0F42E1B3F0B2817390707
:1025F00078F0AC014E5F5F4F2417350748F04E0F5F
:102600005F1F5093470440934604819391939FCF5B
:10261000F0E0E0E09CCFCF93DF930097E9F0FC017E
:10262000329713821282A0914804B0914904ED01BF
:1026300030E020E01097A1F420813181820F931FB8
:1026400020914604309147042817390709F061C0EA
:10265000F0934704E0934604DF91CF910895EA0197
:10266000CE17DF07E8F54A815B819E0141155105D0
:10267000B1F7E901FB83EA8349915991C40FD51F52
:10268000EC17FD0761F4808191810296840F951FFC
:10269000E90199838883828193819B838A83F0E017
:1026A000E0E012968D919C9113970097B9F52D91CA
:1026B0003C911197CD010296820F931F2091460401
:1026C000309147042817390739F6309751F51092A1
:1026D000490410924804B0934704A0934604BCCF29
:1026E000D383C28340815181840F951FC817D907B6
:1026F00061F44E5F5F4F88819981480F591F518364
:1027000040838A819B81938382832115310509F05F
:10271000B0CFF0934904E09348049ECFFD01DC0163
:10272000C0CF13821282D7CFB0E0A0E0EAE9F3E194
:102730000C948C118C01009751F4CB010E946F1204
:102740008C01C801CDB7DEB7E0E10C94A811FC0103
:10275000E60FF71F9C0122503109E217F30708F436
:102760009DC0D901CD91DC911197C617D70798F07C
:10277000C530D10530F3CE0104978617970708F3CB
:10278000C61BD70B2297C193D1936D937C93CF0136
:102790000E940B13D6CF5B01AC1ABD0A4C018C0E04
:1027A0009D1EA0914804B0914904512C412CF12C5C
:1027B000E12C109731F580914604909147048815DB
:1027C000990509F05CC04616570608F058C080917C
:1027D000000190910101009741F48DB79EB740919F
:1027E000040150910501841B950BE817F90708F0C7
:1027F00055C0F0934704E0934604F9017183608368
:10280000A0CF8D919C91119712966C901297139670
:102810007C901397A815B90559F56C0142E0C40ED8
:10282000D11CCA14DB0420F1AC014A195B09DA019E
:102830001296159780F06282738251834083D9018A
:102840006D937C93E114F10471F0D7011396FC931E
:10285000EE93129776CF22968C0F9D1FF9019183EC
:102860008083F301EFCFF0934904E093480469CFEC
:102870004816590608F42C017D01D3019ACFCB01EB
:102880000E946F127C01009749F0AE01B8010E94CE
:102890009C14C8010E940B13870153CF10E000E085
:1028A00050CF91110C94361180538A5018F0865CE9
:1028B0000C945E14089585FD0C943611806291117C
:1028C0000C94361181568A51D8F7089591110C94C1
:1028D000361180538A5028F0865C8062815686507B
:1028E000B0F7089591110C9436118F3711F0805282
:1028F000D0F7089591110C94361181528E55D8F766
:1029000081580E9451148823B1F781E008959111F4
:10291000089581548A5108F4805E855A0895FB0118
:10292000DC0104C08D910190801921F44150504088
:10293000C8F7881B990B0895FB01DC0102C00190C8
:102940000D9241505040D8F70895FB01DC018D9164
:10295000019080190110D9F3990B0895FB01DC0156
:1029600001900D920020E1F70895AEE0B0E0EBEBAE
:10297000F4E10C9498110D891E8986E08C831A83EA
:1029800009838FEF9FE79E838D83AE01475E5F4F84
:102990006F89788DCE0101960E94D8142F813885D9
:1029A000020F131FF80110822E96E4E00C94B4116C
:1029B000ABE0B0E0EEEDF4E10C948A117C013B0158
:1029C0008A01FC0117821682838181FFC8C1CE0172
:1029D00001965C01F7019381F30193FD859193FFCB
:1029E00081913F01882309F453C1853239F493FD65
:1029F000859193FF81913F01853229F4B70190E0E1
:102A00000E94C816E7CF912C212C312CFFE1F31541
:102A100038F08B3211F190F4803209F1833229F1D0
:102A200037FC3CC020ED280F2A3050F536FE20C080
:102A30008AE0989E200D1124922E06C08D3291F0CE
:102A4000803371F7689430F8F30193FD859193FF1B
:102A500081913F018111DACF21C0689431F86894E7
:102A600032F8F2CF689433F8EFCF689434F8ECCFB3
:102A7000EAE02E9E200D1124222E689435F8E4CF32
:102A80008E3229F436FC04C1689436F8DDCF8C36DA
:102A900019F4689437F8D8CF8836B1F2982F9F7D13
:102AA00095549330E0F08336A1F18337C1F183353B
:102AB00009F063C02801F2E04F0E511CF801C080FC
:102AC000D180692D70E036FC02C06FEF7FEFC60148
:102AD0000E94B2164C01689437F882010AC00C5F5C
:102AE0001F4FFFE3F98388248394912C6501E894B8
:102AF00037F833FE2DC0522C8114910471F5552006
:102B000009F468CFB70180E290E00E94C8165A9499
:102B1000F6CFF801808189830E5F1F4FE4CF280133
:102B2000F2E04F0E511CF801C080D180692D70E099
:102B300036FC02C06FEF7FEFC6010E94BD164C014C
:102B40008201D5CFB70180E290E00E94C8162A9496
:102B50002814190409F0B0F7CECFF60137FC85919F
:102B600037FE81916F01B70190E00E94C8165110A5
:102B70005A94F1E08F1A9108BFCF843619F0893644
:102B800009F077C0F80137FE6BC0608171818281E6
:102B900093810C5F1F4FF32DFF763F2E97FF09C0E7
:102BA00090958095709561957F4F8F4F9F4F68945A
:102BB00037F82AE030E0A5010E94F816C82ECA189E
:102BC0008C2C432C36FE0CC0E89440F8C91440F419
:102BD00034FE05C032FC03C0F32DFE7E4F2E892C3F
:102BE00044FE95C0FE01EC0DF11D8081803309F09B
:102BF00087C0242D297E422E842D8870582E43FCB8
:102C000095C040FE8FC09C2C821418F42C0C922C82
:102C1000981844FE91C0B70180E390E00E94C81666
:102C200042FE09C088E790E041FE02C088E590E0DE
:102C3000B7010E94C816C91408F48AC0CA94D12CDE
:102C40009FEFC91AD90ACA0CDB1CF60182916F01E9
:102C5000B70190E00E94C816AC14BD04B1F74FCF85
:102C600060817181072E000C880B990B0E5F1F4F3E
:102C700092CFD32CE894D4F82AE030E0853739F1AC
:102C8000232D297FD22E8F3601F148F48835A9F003
:102C9000F701868197812B96E2E10C94A61180378B
:102CA00049F08837A9F7D4FE02C06894D2F820E131
:102CB00030E00DC06894D4F8F6CF34FE03C0822F04
:102CC0008660D82E20E132E002C028E030E0F80132
:102CD000D7FE0FC060817181828193810C5F1F4F8D
:102CE000A5010E94F816C82ECA183D2CE89437F8A2
:102CF00067CF6081718190E080E00E5F1F4FF0CF61
:102D000042FC02C0839478CF8394839475CF842D42
:102D1000867809F471CFF6CFB70180E290E00E9487
:102D2000C81683948214C0F3512C73CF522C5818B8
:102D3000821408F46ECFF8CF842D867809F47BCF07
:102D40008BE241FE80E247FC8DE2B70190E071CF5B
:102D5000B70180E390E00E94C8169A946CCF8FEF81
:102D60009FEF99CFFC010590615070400110D8F79A
:102D7000809590958E0F9F1F0895FC0161507040C3
:102D800001900110D8F7809590958E0F9F1F0895A0
:102D90000F931F93CF93DF93182F092FEB018B8194
:102DA00081FD09C01FEF0FEF812F902FDF91CF9191
:102DB0001F910F91089582FF14C02E813F818C8155
:102DC0009D81281739073CF4E881F981CF010196EC
:102DD0009983888310838E819F8101969F838E8340
:102DE000E3CFE885F985812F0995892BA1F3DACF07
:102DF000FA01AA27283051F1203181F1E8946F932C
:102E00006E7F6E5F7F4F8F4F9F4FAF4FB1E03ED0D1
:102E1000B4E03CD0670F781F891F9A1FA11D680F6F
:102E2000791F8A1F911DA11D6A0F711D811D911DA2
:102E3000A11D20D009F468943F912AE0269F112417
:102E40003019305D3193DEF6CF010895462F47707B
:102E5000405D4193B3E00FD0C9F7F6CF462F4F70D6
:102E6000405D4A3318F0495D31FD4052419302D034
:102E7000A9F7EACFB4E0A6959795879577956795DA
:102E8000BA95C9F700976105710508959B01AC01DA
:102E90000A2E06945795479537952795BA95C9F701
:102EA000620F731F841F951FA01D089510E0C2E6D6
:102EB000D0E004C0FE010E9469122196C336D107FA
:062EC000C9F7F894FFCFF2
:102EC60000004A04800071095E094B0906000800EB
:102ED6000A000C0000000000C601E6001301130200
:102EE6008401220176014F6B005468617420636F80
:102EF6006D6D616E64206E6F7420776F726B2069E2
:102F06006E20746869732073746174650054656D0E
:102F160070657261747572652053656E736F722089
:102F26004572726F72203A2056657269667920631F
:102F36006F6E6E656374696F6E7300436F6D6D615E
:102F46006E64206E6F74206578697374007B2264EA
:102F5600617461223A25732C22657272223A2564C5
:102F66002C226D7367223A222573227D3B007B2239
:102F760064617461223A226E756C6C222C22657231
:102F860072223A25642C226D7367223A2225732217
:102F96007D3B004F55543A255B5B312D345D252D25
:102FA6005B302D315D2C5B312D345D252D5B302D55
:102FB600315D2C5B312D345D252D5B302D315D2C43
:102FC6005B312D345D252D5B302D315D255D004750
:102FD600440043533A5B312D325D003132006E7549
:102FE6006C6C007B22494E73223A207B2231223AB6
:102FF600207B226461746154797065223A202254E0
:10300600222C202264617461223A2025647D2C20C2
:103016002232223A207B22646174615479706522DF
:103026003A202248222C202264617461223A20250B
:10303600647D2C202233223A207B22646174615401
:10304600797065223A202242222C20226461746122
:10305600223A2025647D7D2C20224F555473223A36
:10306600207B2231223A207B2264617461223A203D
:1030760025647D2C202232223A207B2264617461F1
:10308600223A2025647D2C202233223A207B22649A
:10309600617461223A2025647D2C202234223A2054
:1030A6007B2264617461223A2025647D7D7D007BEC
:1030B600224F555473223A207B2231223A207B221A
:1030C60064617461223A2025647D2C202232223AE2
:1030D600207B2264617461223A2025647D2C2022A3
:1030E60033223A207B2264617461223A2025647D72
:1030F6002C202234223A207B2264617461223A20F9
:1031060025647D7D7D007B227374617465223A227D
:103116002563227D00310030007B224F55547322F7
:0E3126003A222564256425642564227D00007C
:00000001FF
