:100000000C9463000C948B000C948B000C948B006C
:100010000C948B000C948B000C948B000C948B0034
:100020000C948B000C948B000C948B000C948B0024
:100030000C948B000C948B000C948B000C948B0014
:100040000C94F8120C948B000C9482130C945C1397
:100050000C948B000C948B000C948B000C948B00F4
:100060000C948B000C948B000000000024002700EF
:100070002A0000000000250028002B0000000000DE
:1000800023002600290004040404040404040202DA
:100090000202020203030303030301020408102007
:1000A0004080010204081020010204081020000012
:1000B0000008000201000003040700000000000027
:1000C0000000EB12BA1311241FBECFEFD8E0DEBF41
:1000D000CDBF24E0AEE6B3E001C01D92AB34B20761
:1000E000E1F713E0A0E0B1E0ECE9F6E302C005902F
:1000F0000D92AE36B107D9F710E0C2E6D0E004C0E9
:100100002197FE010E94AC15C136D107C9F70E94A4
:1001100053130C94411B0C94000008958330B1F0EC
:1001200060F08730E9F0883009F1843021F5E0E8AB
:10013000F0E080818F7D80830895813069F0823086
:1001400021F484B58F7D84BD08950895E0E8F0E042
:1001500080818F778083089584B58F7784BD0895DB
:10016000E0EBF0E080818F7780830895E0EBF0E0B2
:1001700080818F7D80830895CF93DF93282F30E097
:10018000F901E255FF4F8491F901E656FF4FD491F2
:10019000F901EA57FF4FC491CC23B1F081110EC091
:1001A000EC2FF0E0EE0FFF1FE458FF4FA591B49144
:1001B000EC91ED2331F490E080E008C00E948E00C5
:1001C000EFCF81E090E002C090E080E0DF91CF913E
:1001D00008951F93CF93DF93282F30E0F901E25564
:1001E000FF4F8491F901E656FF4F1491F901EA5748
:1001F000FF4FC491CC23A9F0D62F811116C0EC2F4C
:10020000F0E0EE0FFF1FEE58FF4FA591B4918FB7AE
:10021000F894D1110DC09C91E12FE095E923EC9366
:100220008FBFDF91CF911F9108950E948E00E7CF7D
:10023000EC91E12BEC93F4CFCF93DF9390E0FC01B2
:10024000E656FF4F24918A579F4FFC0184918823E3
:1002500019F190E0880F991FFC01E859FF4FA59113
:10026000B491FC01EE58FF4FC591D491662349F03B
:100270006230A9F08FB7F894EC91E22BEC938FBF2A
:100280000BC09FB7F8948C91E22FE0958E238C934E
:100290008881E823E8839FBFDF91CF9108959FB7BE
:1002A000F8943C91822F809583238C93E881E22BF4
:1002B000E8839FBFF1CF789484B5826084BD84B514
:1002C000816084BD85B5826085BD85B5816085BD51
:1002D000EEE6F0E0808181608083E1E8F0E010826A
:1002E000808182608083808181608083E0E8F0E0AB
:1002F000808181608083E1EBF0E080818460808395
:10030000E0EBF0E0808181608083EAE7F0E08081CB
:10031000846080838081826080838081816080832B
:100320008081806880831092C10008958230910599
:1003300038F0880F991F880F991F05970197F1F7DB
:1003400008953FB7F8948091430490914404A0919C
:100350004504B091460426B5A89B05C02F3F19F06F
:100360000196A11DB11D3FBFBA2FA92F982F882735
:10037000BC01CD01620F711D811D911D660F771F9C
:10038000881F991F660F771F881F991F08958F92E6
:100390009F92AF92BF92CF92DF92EF92FF926B014A
:1003A0007C010E94A1014B015C011BC021E0C21A2B
:1003B000D108E108F10888EE880E83E0981EA11CA0
:1003C000B11CC114D104E104F10459F00E94A1014F
:1003D000681979098A099B09683E7340810591056E
:1003E00028F7C114D104E104F10459F7FF90EF900C
:1003F000DF90CF90BF90AF909F908F9008952FB7D0
:10040000F89460913F047091400480914104909170
:1004100042042FBF08950895FC012481358162179D
:10042000730738F480819181009719F0860F971F28
:10043000089510923D048DE394E008950895FC0121
:10044000448355836683778308950F931F93CF93D7
:10045000DF93EC010E94FF01688779878A879B8779
:10046000E881F9810284F385E02DCE010995992375
:10047000ACF40E94FF01088519852A853B85601B25
:10048000710B820B930B0C811D812E813F816017B4
:1004900071078207930720F38FEF9FEFDF91CF91D2
:1004A0001F910F910895CF92DF92EF92FF920F93D9
:1004B0001F93CF93DF938C01DB01D0E0C0E07A0182
:1004C00081E0E81AF108452BA1F0F80180819181C3
:1004D000FC01208131816D01FFEFCF1ADF0A6C91A1
:1004E000C801F9010995892B21F02196A701D601B0
:1004F000E6CFCE01DF91CF911F910F91FF90EF904A
:10050000DF90CF900895019709F008956F3F7F4FD6
:10051000E1F7E0EAF3E01382128288EE93E0A0E0D4
:10052000B0E084839583A683B78388E191E09183CB
:10053000808385EC90E09587848784EC90E09787B2
:10054000868780EC90E0918B808B81EC90E0938BA0
:10055000828B82EC90E0958B848B86EC90E0978B7D
:10056000868B118E128E138E148ECFCFFC01938D3D
:10057000848D981720F4891B990B019708952FE318
:1005800030E0291B3109820F932F911D0895FC0142
:10059000918D828D981761F0A28DAE0FBF2FB11D86
:1005A0005D968C91928D9F5F9F73928F90E00895DE
:1005B0008FEF9FEF0895FC01918D828D981731F098
:1005C000828DE80FF11D858D90E008958FEF9FEFEC
:1005D0000895FC01218D30E0205C3F4F828DA90100
:1005E000481B5109CA018F739927089580EA93E047
:1005F0000E94E90221E0892B09F420E0822F08956E
:10060000CF92DF92EF92FF921F93CF93DF93EC0193
:100610006A017B01122F60E079E08DE390E0A70191
:1006200096010E948A1521503109410951095695B8
:10063000479537952795E889F98982E08083C11429
:1006400081EED806E104F10421F0211580E138079C
:1006500098F0E889F989108260E874E88EE190E00A
:10066000A70196010E948A152150310941095109BB
:100670005695479537952795EC85FD853083EE8512
:10068000FF852083188EEC89FD891083EA89FB8918
:10069000808180618083EA89FB8980818860808392
:1006A000EA89FB89808180688083EA89FB8980816F
:1006B0008F7D8083DF91CF911F91FF90EF90DF902E
:1006C000CF900895FC01A48DA80FB92FB11DA35A96
:1006D000BF4F2C91848D90E001968F739078848F1A
:1006E000A689B7892C93A089B1898C918370806485
:1006F0008C93938D848D981308950288F389E02D4F
:1007000080818F7D8083F8CF0F931F93CF93DF93EA
:10071000EC0181E0888F9B8D8C8D9817B1F0062FAE
:100720008B8D90E001968F739078182F8C8D8113AC
:100730001EC00FB607FCFACFE889F989808185FFD2
:10074000F5CFCE010E946203F1CFE889F98980815B
:1007500085FFE5CF9FB7F894EE89FF896083E8892C
:10076000F98980818370806480839FBF10C0EB8D86
:10077000EC0FFD2FF11DE35AFF4F00839FB7F89454
:100780001B8FEA89FB898081806280839FBF81E023
:1007900090E0DF91CF911F910F910895CF93DF9358
:1007A000EC01888D811104C00DC00FB607FE0DC08D
:1007B000EA89FB89808185FDF8CFA889B9898C9168
:1007C00086FFF3CFDF91CF910895808185FFF0CF31
:1007D000E889F989808185FFEBCFCE010E94620311
:1007E000E7CF80E090E0892B21F00E94F602811192
:1007F00001C008950E940000FCCFFC017283618358
:100800005483438310820895FF920F931F93CF93D5
:10081000DF93DC01662339F11796FC90179710E0FF
:1008200000E01896EC911897F0E0EE0FFF1FE458E7
:10083000FF4FC591D491988117968C911797982363
:100840009F1113C0C801019630E020E01D964D9124
:100850005D916D917C915097041715072607370716
:1008600068F48C01DECFF12CDACFB80190E080E0A3
:10087000DF91CF911F910F91FF9008956FEF7FEF60
:10088000CB01F6CF4F925F926F927F928F929F92A1
:10089000AF92BF92CF92DF92EF92FF920F931F938E
:1008A000CF93DF93CDB7DEB7C054D1400FB6F894E5
:1008B000DEBF0FBECDBF6C01162F0E94FF011111CC
:1008C00013C0F60101851285238534854B015C0137
:1008D000801A910AA20AB30A95018401003D1740CB
:1008E0002105310508F457C0F601618772878387B7
:1008F00094871482138212821182108262E08581B1
:100900000E941C0161E070E080E090E00E94C7015D
:1009100061E0F60185810E941C0160E0F60185819D
:100920000E94E900F601868185518230B0F58CE4A1
:1009300094E00E94960162E0F60185810E941C010C
:10094000F601828990E00E949601F89460E0C60169
:100950000E9404046F3F7F4F8F4F9F4F29F5F60190
:10096000118A789480E0C05CDE4F0FB6F894DEBF49
:100970000FBECDBFDF91CF911F910F91FF90EF90F0
:10098000DF90CF90BF90AF909F908F907F906F90AF
:100990005F904F9008958189E6CF64E170E080E038
:1009A00090E00E94C701C7CF61E0C6010E94040425
:1009B0006F3F7F4F8F4F9F4F79F110E000E0003580
:1009C00011056CF560E0C6010E940404F801EE0F09
:1009D000FF1FEE0FFF1F88248394912C8C0E9D1E09
:1009E000E80DF91D608371838283938378012FEF73
:1009F000E21AF20A61E0C6010E940404F701EE0F58
:100A0000FF1FEE0FFF1FE80DF91D608371838283C6
:100A100093830E5F1F4FD3CFF601118AA2CF789434
:100A200030E020E008C0F601118A80E09CCF0796F4
:100A300035C02F5F3F4F283231050CF044C0F9011B
:100A4000EE0FFF1FEE0FFF1FEE0FFF1F41E050E004
:100A50004C0F5D1FE40FF51F80809180A280B38052
:100A6000C901880F991F0196880F991F880F991F38
:100A7000840F951FFC014080518062807380FFEFDE
:100A80008F169F06AF06BF0671F24FEF441654064D
:100A90006406740641F2C90133234CF2959587959B
:100AA0009595879595958795F601E80FF91F4081F3
:100AB000440F408384149504A604B70408F0B9CF0A
:100AC00041604083B6CFF601448120818181280FA7
:100AD0003327331F8281280F311D8381820F932F8B
:100AE000911D99274817190619F0118A80E03BCF0C
:100AF00081E0818B38CFCF92DF92EF92FF92CF933C
:100B0000DF93EC010E944204882391F18E818B30A7
:100B1000D0F18D3090F085518230A8F568818981BF
:100B2000762F682F90E080E00E9431142DEC3CEC91
:100B30004CEC5DE30E9492141FC0688170E090E06D
:100B400080E00E9433146B017C01698170E090E0C9
:100B500080E00E9433142DEC3CEC4CEC5DE30E94F1
:100B600092149B01AC01C701B6010E94B31504C0E9
:100B700060E070E080EC9FE7DF91CF91FF90EF9015
:100B8000DF90CF90089560E070E080EC9FE7F4CFB5
:100B9000CB01BA0126E636E646EE5FE30E949214E8
:100BA00020E030E040E052E40E94B3150895CF9277
:100BB000DF92EF92FF920F931F93CF93DF93EC019D
:100BC000162F642F0E944204882309F481C08E816D
:100BD0008C3009F455C040F58B3009F086C06A812D
:100BE00070E090E080E00E9431146B017C010B8189
:100BF0000023DCF10F70602F70E090E080E00E9435
:100C000033142DEC3CEC4CEC5DE30E949214A701F4
:100C100096010E94B315112309F45EC0AB01BC011B
:100C2000CE010E94C80558C08551823008F05DC0D1
:100C30000A81602F70E0762F662766277F778B8189
:100C4000682B90E080E00E9431142DEC3CEC4CECE1
:100C50005DE30E9492140023CCF11123E9F1AB0172
:100C6000BC01CE010E94C80537C0AC019B0160E009
:100C700070E080E89FEB0E94B2156B017C01BACF57
:100C80000A81602F70E090E080E00E9431146B01D7
:100C90007C016B816F7070E090E080E00E94331403
:100CA0002DEC3CEC4CEC5DE30E949214A701960104
:100CB0000E94B315002344F0112371F0AB01BC0175
:100CC000CE010E94C80508C09058F6CF9058C5CFF5
:100CD00060E070E080EC9FE7DF91CF911F910F9172
:100CE000FF90EF90DF90CF90089560E070E080EC8F
:100CF0009FE7F2CF1F93CF93DF93EC01162F62E0B3
:100D00008D810E941C010E94FF01605D7740810976
:100D1000910969877A878B879C871A8BDF91CF919E
:100D20001F910895DC0115966C93159716964C93B8
:100D3000169770E0FB01E656FF4FE4911796EC938F
:100D400017976A577F4FFB01649118966C93189719
:100D500040E85EE360E070E01D964D935D936D9317
:100D60007C9350970895EF92FF921F93CF93DF9358
:100D70007C01162FD0E0C0E080918703909188031A
:100D8000C817D90758F4BE0183E893E00E940C020B
:100D9000FC018081811769F02196EECF80E08823E5
:100DA00011F0F7011083DF91CF911F91FF90EF9029
:100DB000089581E0F4CF21E3FC0120830895EF92B0
:100DC000FF920F931F93CF93DF93CDB7DEB7639757
:100DD0000FB6F894DEBF0FBECDBF790126E0CE017D
:100DE00001960E94920683E1FE013196A0E7B3E0EE
:100DF00001900D928A95E1F767E380E793E00E9406
:100E00007A06A701FF0C660B770B26E080EA93E0D9
:100E10000E940003A801110F660B770B80EA93E094
:100E20000E941F0260E08EE00E941C0160E08FE0E3
:100E30000E941C0160E082E10E941C0161E086E0EA
:100E40000E941C0161E088E00E941C0161E08AE0D0
:100E50000E941C0161E08CE00E941C0161E08DE0B9
:100E60000E941C0163960FB6F894DEBF0FBECDBF83
:100E7000DF91CF911F910F91FF90EF900895009710
:100E800011F481E090E00E945A1608950E943F07F5
:100E900008950F931F93CF93DF9381E090E00E941A
:100EA0004607EC010E94DB06D0936F03C0936E03EC
:100EB0000AE010E020E835E246E150E06EE070E044
:100EC000CE010E94DF06DF91CF911F910F9108950F
:100ED000DC0114962D913C911597232B69F4611533
:100EE000710541F0FB018081882311F080E00895B5
:100EF00081E0089581E008956115710559F0FC01C4
:100F0000808191810E94901821E0892B09F020E0D6
:100F1000822F0895ED91FC91908181E09923C9F38E
:100F200080E008956115710581F0FB0101900020BA
:100F3000E9F73197AF01461B570BDC01ED91FC91AE
:100F40000280F381E02D0995089590E080E00895F6
:100F5000FB0101900020E9F73197AF01461B570BC9
:100F60000E94FD0308950F931F93CF93DF938C018D
:100F7000EB01FC0180819181892BB1F088819981FD
:100F8000892B51F18EE192E0A0E0892B49F1F80123
:100F9000228133818C819D812817390720F5F80142
:100FA000808191810E94F61688819981F801918350
:100FB00080838A819B81938382838C819D819583A9
:100FC0008483198218821B821A821D821C82DF91FF
:100FD000CF911F910F91089580E090E0DC01D5CF73
:100FE000A0FFDDCFD4CF68817981808191810E947B
:100FF00099188C819D81F801958384831D821C82C0
:10100000E6CFCF93DF93EC016817790711F00E94C8
:10101000B307CE01DF91CF910895CF93DF93EC0119
:101020008617970711F00E94B307CE01DF91CF9189
:101030000895CF93DF93EC0188819981009711F097
:101040000E94F616198218821D821C821B821A8247
:10105000DF91CF910895FC0180819181009711F07B
:101060000E94F61608950F931F93CF93DF93EC0120
:101070008B016F5F7F4F888199810E947F17009756
:1010800051F0998388831B830A8381E0DF91CF919C
:101090001F910F91089580E0F9CFCF93DF93EC017A
:1010A00028813981232B29F02A813B812617370794
:1010B00070F4CE010E943308882351F08C819D8109
:1010C000892B49F4E881F981108281E001C081E037
:1010D000DF91CF91089581E0FBCFEF92FF920F93C4
:1010E0001F93CF93DF93FC01C481D581C40FD51F1B
:1010F0006115710501F1452B41F481E0DF91CF913C
:101100001F910F91FF90EF9008957B018C01BE011C
:101110000E944D08882391F3F80120813181848158
:101120009581B701820F931F0E949918F801D5830A
:10113000C48381E0E3CF80E0E1CFCF93DF9300D0A1
:10114000CDB7DEB769831A8241E050E0BE016F5F20
:101150007F4F0E946D080F900F90DF91CF910895FF
:10116000BF92CF92DF92EF92FF920F931F93CF9394
:10117000DF936B017A018901D0E0C0E0B12C0AC095
:10118000BE01C8010E940C02FC016081C7010E94DF
:101190009D082196F80184819581C817D907B8F474
:1011A000BE01C8010E940C02FC0180818A3361F0FB
:1011B000B110E6CFBE01C8010E940C02FC016081A3
:1011C000C6010E949D08E5CFBB24B394E2CFDF9116
:1011D000CF911F910F91FF90EF90DF90CF90BF9034
:1011E0000895EF92FF920F931F93CF93DF93EC013B
:1011F0007B018A01BA010E944D08882379F01D8382
:101200000C83B701888199810E949918CE01DF91E2
:10121000CF911F910F91FF90EF900895CE010E9402
:101220001908F4CFCF93DF93EC016115710571F0CC
:10123000FB0101900020E9F73197AF01461B570BE6
:101240000E94F108CE01DF91CF9108950E94190804
:10125000F9CFCF93DF9300D0CDB7DEB7FC01118279
:101260001082138212821582148269831A82BE014F
:101270006F5F7F4F0E9412090F900F90DF91CF9107
:101280000895CF93DF93EC01FB018617970749F090
:10129000608171816115710541F0448155810E9421
:1012A000F108CE01DF91CF9108950E941908F9CF7E
:1012B000FC011182108213821282158214820E9414
:1012C00041090895FC011182108213821282158255
:1012D00014826115710551F0FB0101900020E9F7BE
:1012E0003197AF01461B570B0E94F10808950F93E9
:1012F0001F93CF93DF93EC018B0169E473E00E94AD
:101300006209C8010E942502992344F0682FCE018A
:101310000E949D08C8010E942502F6CFCE01DF91F0
:10132000CF911F910F9108950F931F93CF93DF9348
:10133000EC018B01019751F0CD2B19F40F3F1F4F9A
:10134000B1F0DF91CF911F910F9108956F3F7F4FC3
:1013500099F766E271E083E893E00E94620926E073
:1013600046E16EE080E793E00E949206E5CF83E8D5
:1013700093E00E942B08E5CF0F931F93CF93DF9349
:1013800000D000D000D0CDB7DEB78C0169E473E0A7
:101390000E94620980EA93E00E94E9021816190689
:1013A000C4F460E08DE00E94E90060EA73E0CE01E1
:1013B00001960E947709BE016F5F7F4FC8010E94AE
:1013C0000D08CE0101960E942B0861E08DE00E947D
:1013D000E900C80126960FB6F894DEBF0FBECDBF58
:1013E000DF91CF911F910F910895EF92FF920F938C
:1013F0001F93CF93DF937C018B01CB010E94721866
:10140000815691098A31910508F06AC0855F954F30
:10141000FC010C94AC15250A700A2A0A2F0A700ADE
:10142000700A700A700A700A700A700A4C0A700A10
:10143000700A700A510A700A700A560A700A5B0A2A
:10144000700A600A650A700A6A0AC7010E94491890
:10145000EC010FC0C7010E945D18EC010AC0F0E367
:10146000EF1AF108C1E08AE0E816F10408F0C0E0E4
:10147000D0E0C8010E944A18892B31F481E0CD2BBD
:1014800009F080E0C82FD0E0CE01DF91CF911F910D
:101490000F91FF90EF900895C7010E944A18EC0148
:1014A000E8CFC7010E946518EC01E3CFC7010E9495
:1014B0002814EC01DECFC7010E944618EC01D9CFF9
:1014C000C7010E943C18EC01D4CFC7010E945118FB
:1014D000EC01CFCFC1E0EF2809F0C0E0D0E0C9CFE8
:1014E000C1E00E151F0509F0C0E0D0E0CDCFCF92CE
:1014F000DF92EF92FF920F931F93CF93DF938C01B4
:10150000EB016A0189818E3521F0EE24E394F12C00
:1015100015C02196F12CE12C11C0DE010EC02296DF
:1015200011966C9170E0C8010E94F509892B41F574
:10153000DE0103C08017110619F1ED01DE011196DD
:10154000AC15BD05B8F48981853249F311969C919B
:1015500011979D3279F72396CC15DD0558F7801742
:10156000110609F0D4F612968C918017110644F4F6
:10157000DE01E3CF81E0EF2809F080E0E82EF12CD6
:10158000C701DF91CF911F910F91FF90EF90DF90F6
:10159000CF9008959C01FB0190819E32B9F09B355C
:1015A00079F0953239F081E09217130609F080E066
:1015B00090E00895618170E0C9010E94F5090895E5
:1015C00041505109C9010E94770A089581E090E0D5
:1015D0000895682F880F770B89E893E00E94FF1326
:1015E0001F93CF93DF93EC01FB01DA018C918823E9
:1015F00051F011961C91112331F0908189131DC077
:1016000061E070E007C08BEF0E94E90A6150710948
:1016100089F0F9019F012F5F3F4F4D815E812417B3
:10162000350770F49181191789F38913F2CF6F5F31
:101630007F4FEFCFCF01029605C090E080E002C05F
:1016400090E080E0DF91CF911F910895FB013196EA
:10165000DB018C91853221F08B3559F0CF01089553
:10166000FB018181882311F03296F8CF8DEF0E9423
:10167000E90A11968C918E3579F4FB0132960CC0F3
:101680008CEF0E94E90A8181882311F0329601C013
:10169000F90180818D3551F08081882389F39F0184
:1016A0002F5F3F4F853279F3F901F3CF3196D6CFD3
:1016B000DC011B968D919C911C970197992374F0E6
:1016C000FC01EE0FFF1FEE0FFF1FEA0FFB1F278528
:1016D00030892F3F3F4F29F00197F0CF8EEF0E94C6
:1016E000E90A089561537109A2F0FC01238534854C
:1016F0006217730774F49B01220F331F220F331FED
:10170000820F931FFC0187859089019611F0CB0110
:1017100008958FEF0E94E90AEF92FF920F931F93B3
:10172000CF93DF93EC018B01BA010E94720BFC0195
:10173000EE0FFF1FEE0FFF1FEC0FFD1FE784F08879
:101740002D813E81201B310B2E153F0590F0A70106
:10175000B801858596850E947A18892B69F4C8019D
:101760008E0D9F1DDF91CF911F910F91FF90EF90F4
:10177000089590E080E0F6CF90E080E0F3CFAF9264
:10178000BF92CF92DF92EF92FF920F931F93CF936E
:10179000DF937C018B01EA018881853209F456C010
:1017A00044F5882309F4ECC0843221F4898188232C
:1017B00009F4A2C0BE01C7010E94260B6C01F7010B
:1017C000858196810817190708F49FC090E0F601FB
:1017D00080818B3209F4BCC00CF4A4C08D3209F4B2
:1017E000C2C08F3309F0C6C09111A5C0E601219691
:1017F000D3CF8832A1F08932E9F6AE014F5F5F4F57
:10180000B801C7010E94BB0DDF91CF911F910F91CD
:10181000FF90EF90DF90CF90BF90AF9008958981B7
:10182000893251F0AE014F5F5F4F2FEF3FEFB801AC
:10183000C7010E94F20DE8CFAE014E5F5F4F2EEF61
:101840003FEFB801C7010E94F20DDECF4981423659
:1018500099F04636F1F0242F2053330B2A3031050E
:1018600008F0A8CF50E0B801C7010E948C0B8C0192
:10187000009751F2229690CFAE014E5F5F4FB801B4
:10188000C7010E94F00A8C01009709F4BDCF24968D
:1018900083CF6E0122E0C20ED11C8A818B3539F5CF
:1018A000B601C7010E94260BEC01F70181819281EC
:1018B00080179107F9F0F801319780815E01F1E01E
:1018C000AF1AB108A501B60190E00E94770A892BF2
:1018D00009F058C0F8018081A501B60190E00E948E
:1018E000770A892B09F058CF90E080E08DCF89EFFF
:1018F0000E94E90A80E0E2CFF70185819681801796
:10190000910709F042C0C8017FCFF8018081A6018C
:10191000BE0190E00E94CA0A892B11F091E057CFD6
:1019200090E055CF8A3231F59601AE01B801C7017A
:101930000E944E0E69CFA6014F5F5F4FB8016F5FE7
:101940007F4FC7010E94BF0B009709F44FCF5CCFB8
:101950009923F1F0B8016F5F7F4F9601AE01C70187
:101960000E944E0E51CF9601AE01B801C7010E94F0
:101970001A0E4ACF992379F00F5F1F4FE6010CCF63
:10198000C80142CF90E080E03FCF90E080E03CCFC4
:1019900090E080E039CF90E080E036CFDF92EF92A8
:1019A000FF920F931F93CF93DF9300D000D000D00E
:1019B000CDB7DEB79A8389837C836B835E834D8347
:1019C00089E893E00E94DF13D82E811123C0E981BA
:1019D000FA8181819281009779F1E981FA812381ED
:1019E00034814D815E812417350710F43E832D83A9
:1019F000EB81FC8140814E3511F1F12CE12C0D8100
:101A00001E81080F191F820F931FE981FA819683A7
:101A100085831DC0E981FA8180838D2D26960FB6BE
:101A2000F894DEBF0FBECDBFDF91CF911F910F9114
:101A3000FF90EF90DF90089588EF0E94E90A3196B9
:101A4000FC83EB83EE24E394F12CD9CF8901E98167
:101A5000FA81148613864B815C81B801CF010E9404
:101A6000BF0B009789F498012F5F3F4FE981FA81FE
:101A7000858196810817190718F4E114F10431F3F0
:101A8000E981FA811082C9CFE981FA81218132810D
:101A9000A801421B530B50874783801B910B9287F1
:101AA000818781E08083DD24D394B7CF0F931F9388
:101AB000CF93DF93CDB7DEB7CD58D1090FB6F894E9
:101AC000DEBF0FBECDBF8B0119821B821A82BC0103
:101AD000CE0101960E94A80750E040E0B801CE0177
:101AE00001960E94CE0C91E018166CF4892FC35712
:101AF000DF4F0FB6F894DEBF0FBECDBFDF91CF91A1
:101B00001F910F91089590E0F1CFCF93DF93EB01F8
:101B100069E271E00E94560D882331F02C813D81ED
:101B20002531310509F080E0DF91CF910895CF9301
:101B3000DF93EB0165E671E00E94560D882331F0DA
:101B40002C813D812230310509F080E0DF91CF9179
:101B50000895CF93DF93EB0168E671E00E94560D84
:101B6000882331F02C813D812430310509F080E05B
:101B7000DF91CF910895CF92DF92EF92FF920F9372
:101B80001F93CF93DF93EC017B016A010E94580BF6
:101B90008C01FC01EE0FFF1FEE0FFF1FEC0FFD1F6E
:101BA000858596859701281B390B308B2787A601E1
:101BB000B701CE010E94BF0B009749F0DF91CF9192
:101BC0001F910F91FF90EF90DF90CF900895000F3D
:101BD000111F000F111FC00FD11F2FEF3FEF388BC8
:101BE0002F87ECCFCF93DF93EC018B859C858032E0
:101BF0009105B4F4FC01EE0FFF1FEE0FFF1FEC0F79
:101C0000FD1F76876587308B278701969C878B879A
:101C1000CE010E94BF0B009731F0DF91CF91089564
:101C20008AEF0E94E90A2B853C85215031093C87C7
:101C30002B87F3CFAF92BF92CF92DF92EF92FF92BA
:101C40000F931F93CF93DF937C01EB015A0169013E
:101C5000A6014F5F5F4FBE01C7010E94BF0B8C0101
:101C6000892B81F4F70185819681C817D90750F433
:101C70008881A601B50190E00E94CA0A892B11F063
:101C80002196E6CFC801DF91CF911F910F91FF9070
:101C9000EF90DF90CF90BF90AF900895AF92BF923A
:101CA000CF92DF92EF92FF920F931F93CF93DF9328
:101CB0006C018B015A017901D0E0C0E0F801EC0F12
:101CC000FD1FD60115968D919C91E817F90750F4E8
:101CD0008081A701B50190E00E94CA0A892B11F00A
:101CE0002196ECCFDD236CF0A7014F5F5F4FB80169
:101CF0006C0F7D1FC6010E94BF0B009721F4219736
:101D0000F1CF90E080E0DF91CF911F910F91FF9094
:101D1000EF90DF90CF90BF90AF900895CF93DF9377
:101D2000CDB7DEB7C059D1400FB6F894DEBF0FBEB5
:101D3000CDBF1A821982FE0133962EE831E0DF0111
:101D4000A9011D9241505040E1F78130910571F198
:101D500021E731E08230910561F18330910561F135
:101D6000009769F13F932F939F938F9389EF91E0B1
:101D70009F938F93CE0101969F938F930E94A018FB
:101D80000FB6F894DEBF0FBECDBFBE016F5F7F4FB1
:101D900080EA93E00E949207C057DE4F0FB6F89496
:101DA000DEBF0FBECDBFDF91CF91089524E731E0B4
:101DB000D1CF26E831E0D1CF24EB31E0D1CF3F9332
:101DC0002F939F938F937F936F9388ED91E09F93D1
:101DD0008F93CE0101969F938F930E94A0180FB608
:101DE000F894DEBF0FBECDBFD0CF8F929F92AF923F
:101DF000BF92CF92DF92EF92FF920F931F93CF93F8
:101E0000DF93CDB7DEB72C970FB6F894DEBF0FBEC9
:101E1000CDBF6B015A01790186E0E6E0F1E0DE0119
:101E2000179601900D928A95E1F710E000E00330DB
:101E3000110520F5F801EE0FFF1F81E090E08C0FF7
:101E40009D1FE80FF91F86809780B701CE0101968C
:101E50000E945809BE016F5F7F4FC601F4010995CA
:101E6000982ECE0101960E942B08911003C00F5F9F
:101E70001F4FDDCFF5011183008307C06EE172E0D3
:101E800081E090E00E948E0E912C892D2C960FB649
:101E9000F894DEBF0FBECDBFDF91CF911F910F91A0
:101EA000FF90EF90DF90CF90BF90AF909F908F907A
:101EB00008952F923F924F925F926F927F92AF92CE
:101EC000BF92CF92DF92EF92FF920F931F93CF9327
:101ED000DF9300D000D000D0CDB7DEB75C0180E941
:101EE00091E00E945A168E839D83F5018081813393
:101EF00011F1F5018081823309F48CC08E819D81BE
:101F00000E94F61690E080E026960FB6F894DEBFA9
:101F10000FBECDBFDF91CF911F910F91FF90EF903A
:101F2000DF90CF90BF90AF907F906F905F904F9079
:101F30003F902F90089560E080E793E00E947B053A
:101F40006B017C0140E060E080E793E00E94D705F0
:101F500069837A838B839C83A7019601C701B601AD
:101F60000E94551681114FC029813A814B815C81B5
:101F7000CA01B9010E945516811145C08CE00E942A
:101F8000BC00382E292E8AE00E94BC00582E492E13
:101F900088E00E94BC00782E692E86E00E94BC007A
:101FA000182F092F82E10E94BC002F923F924F927E
:101FB0005F926F927F920F931F939F938F93C701AE
:101FC000B6010E941F167F936F9369817A818B817E
:101FD0009C810E941F167F936F9383E292E09F93F0
:101FE0008F93FD81FF938E818F930E94A0186E8145
:101FF0007D8190E080E00E948E0E0FB6F894DEBFE7
:102000000FBECDBF76CF6EE172E082E090E00E941D
:102010008E0E6FCF8CE00E94BC00D82EC92E8AE0B5
:102020000E94BC00F82EE92E88E00E94BC00182F08
:10203000092F86E00E94BC00CF92DF92EF92FF92C0
:102040000F931F939F938F938FEE92E09F938F93A5
:10205000FD81FF938E818F930E94A0186E817D81F8
:1020600090E080E00E948E0E0FB6F894DEBF0FBEA7
:10207000CDBF44CFAF92BF92DF92EF92FF920F930A
:102080001F93CF93DF93CDB7DEB7EE970FB6F894DB
:10209000DEBF0FBECDBF7B0103E010E05E012DE08F
:1020A000A20EB11C11235CF069E473E0C5010E942B
:1020B000620936E0A30EB11C01501109F3CF88E08C
:1020C000ECE0F1E0DE01959601900D928A95E1F742
:1020D00069E473E0CE018D960E94620910E000E091
:1020E000B12CA12C1DC0C501880F991F8A0D9B1D05
:1020F000880F991FBE01635D7F4F2DE030E02C0FEC
:102100003D1F820F931F0E94410969E473E0CE01D5
:102110008D960E9412093FEFA31AB30A0F5F1F4F5B
:10212000F701848195810817190758F5B801C7018F
:102130000E940C02FC0180818C32A9F2B801C70117
:102140000E940C02FC0180818D3569F2B801C70143
:102150000E940C02FC018081803201F3B801C701AA
:102160000E940C02FC0180818B35C1F2B801C701CD
:102170000E940C02FC016081CE018D960E949D0898
:10218000CDCFF12CE12C8BC0B801C5010E940C020F
:10219000FC016081CE0101960E942909BE016F5F9A
:1021A0007F4FCE01C3960E940108CE0101960E9486
:1021B0002B0802C0DD24D3940F5F1F4FC701880F87
:1021C000991F8E0D9F1D880F991F21E030E02C0F65
:1021D0003D1F820F931FFC01808991890817190701
:1021E000C0F5C701880F991F8E0D9F1D880F991F7D
:1021F0000F2EFDE0AF2EB12CF02DAC0EBD1EA80EA3
:10220000B91EB801C5010E940C02FC0180818D320B
:1022100089F2B801C5010E940C02FC018081803264
:1022200059F2D110B1CFB801C5010E940C02FC01D6
:102230006081CE0107960E942909BE01695F7F4F28
:10224000CE01C9960E940108CE0107960E942B0874
:10225000B3CF68E473E0CE01C3960E94680711E033
:10226000811110E089AD9AAD0E94C113FC01319734
:10227000EE0FFF1F21E030E02C0F3D1FE20FF31F98
:10228000612F84A10E94E900CE01C3960E942B0811
:10229000CE01C9960E942B083FEFE31AF30A898901
:1022A0009A898E159F0580F066E473E0CE01C99689
:1022B0000E94620968E473E0CE01C3960E9462093D
:1022C00010E000E0D12C7ACFCE018D960E942B0831
:1022D0008E010B5D1F4FCE010D960817190731F0C7
:1022E00006501109C8010E942B08F5CFEE960FB6D3
:1022F000F894DEBF0FBECDBFDF91CF911F910F913C
:10230000FF90EF90DF90BF90AF900895CF92DF9253
:10231000EF92FF920F931F93CF93DF93CDB7DEB76A
:10232000CE55D1090FB6F894DEBF0FBECDBF8C01DC
:1023300080EA93E00E94E902181619060CF0A0C08A
:1023400068EE73E080E090E00E94C701B801CE0122
:10235000895A9F4F0E94BC0983E090E06F969FAF1F
:102360008EAF6F971C8A1B8AFE01759686E2DF018D
:102370001D928A95E9F790E080E06D962EAD3FAD15
:102380006D978217930790F46996AEADBFAD6997CC
:10239000A80FB91FE3E1F0E0EC0FFD1FE80FF91FF4
:1023A00020813C91230F20830196E7CFBE01695A1B
:1023B0007F4FCE010D960E9458099E01235F3F4F2B
:1023C000AE01435A5F4FBE016D5E7F4FC8010E9450
:1023D000F50EF82ECE010D960E942B08FF2009F471
:1023E0004AC06F968EAD9FAD6F978130910509F40D
:1023F00057C08230910519F0892B09F0DFC069E4DC
:1024000073E0CE018F5A9F4F0E94620969E473E026
:10241000CE01855B9F4F0E946209BE01695A7F4FC2
:10242000CE0107960E9458099E01295F3F4FAE01D9
:10243000455B5F4FBE016F5A7F4FC8010E94B008D5
:10244000CE0107960E942B086F968EAD9FAD6F97B9
:10245000892B51F16F968EAD9FAD6F97029709F45E
:1024600058C0CE01855B9F4F0E942B08CE018F5A2A
:102470009F4F0E942B08CE01895A9F4F0E942B0824
:10248000C25ADF4F0FB6F894DEBF0FBECDBFDF914B
:10249000CF911F910F91FF90EF90DF90CF90089513
:1024A000C8010E94590FE7CF70E060E0CE01855B64
:1024B0009F4F0E940C02FC016081C8010E94B3067C
:1024C0001CAE1BAEFE01FD9687E0DF011D928A95D2
:1024D000E9F7F8018081282F082E000C330B3F9379
:1024E0008F938AE493E09F938F937E01FBE3EF0E3B
:1024F000F11CFF92EF920E94A018B70190E080E0DB
:102500000E948E0E0F900F900F900F900F900F90D3
:10251000A1CFD8018C91823339F06EE172E083E073
:1025200090E00E948E0E9DCFBE01655B7F4FCE0175
:1025300001960E945809BE016F5F7F4FC8010E943B
:102540003A10CE0101960E942B081CAE1BAEFE0174
:10255000FD968EE0DF011D928A95E9F78CE00E94DE
:10256000BC00D82EC92E8AE00E94BC00F82EE92EAD
:1025700088E00E94BC00182F092F86E00E94BC0052
:10258000CF92DF92EF92FF920F931F939F938F93BF
:1025900089E593E09F938F938E01055C1F4F1F93F6
:1025A0000F930E94A018B80190E080E00E948E0E68
:1025B0000FB6F894DEBF0FBECDBF53CFCE01895A00
:1025C0009F4F0E942B085CCF80916E0390916F0308
:1025D0000E94861108956FEF7FEF81E090E00E94E6
:1025E00083026FEF7FEF81E090E00E9494090895ED
:1025F0001F920F920FB60F9211240F931F932F93D8
:102600003F934F935F936F937F938F939F93AF937A
:10261000BF9300913F0410914004209141043091F8
:10262000420490913E04B901A8014F5F5F4F6F4F84
:102630007F4F83E0890F8D3740F086E8890FB9011D
:10264000A8014E5F5F4F6F4F7F4F80933E044093D2
:102650003F0450934004609341047093420480917E
:10266000430490914404A0914504B091460401961E
:10267000A11DB11D8093430490934404A09345048D
:10268000B0934604BF91AF919F918F917F916F91CD
:102690005F914F913F912F911F910F910F900FBE1E
:1026A0000F901F9018950E945B010E9449070E949D
:1026B000E4120E94F103FBCF1F920F920FB60F920C
:1026C00011242F933F934F935F936F937F938F9337
:1026D0009F93AF93BF93EF93FF9380EA93E00E94A1
:1026E0006203FF91EF91BF91AF919F918F917F9185
:1026F0006F915F914F913F912F910F900FBE0F906F
:102700001F9018951F920F920FB60F9211242F93BE
:102710008F939F93AF93BF93EF93FF93E091B00399
:10272000F091B103808182FD14C0E0EAF3E0A68954
:10273000B7892C91818D8F5F8F73928D891771F07E
:10274000DF01E18DF0E0E056FC4F258F59968C9328
:1027500005C0E091B603F091B7038081FF91EF913E
:10276000BF91AF919F918F912F910F900FBE0F90BE
:102770001F9018956FEF7FEF90E080E00E94940922
:102780000895FC0188279927E89421912032E9F3E4
:10279000293010F02E30C8F32B3241F02D3239F4AD
:1027A000689404C00E942014820F911D219120532F
:1027B0002A30C0F31EF4909581959F4F0895DC0157
:1027C0002D923D924D925D926D927D928D929D9251
:1027D000AD92BD92CD92DD92ED92FD920D931D933F
:1027E000CD93DD93FF91EF918DB78D938EB78D9340
:1027F0008FB78D93ED93FD93882799270994DC017A
:10280000CB0181309105811D2D903D904D905D90C3
:102810006D907D908D909D90AD90BD90CD90DD9010
:10282000ED90FD900D911D91CD91DD91ED91FD917A
:102830000D90F894FEBF0FBEEDBFED91FD91099490
:102840007AE0979F902D879F802D910D11240895F8
:1028500091110C94FF14803219F089508550C8F7FB
:102860000895E89409C097FB3EF490958095709583
:1028700061957F4F8F4F9F4F9923A9F0F92F96E9CC
:10288000BB279395F695879577956795B795F11141
:10289000F8CFFAF4BB0F11F460FF1BC06F5F7F4FDE
:1028A0008F4F9F4F16C0882311F096E911C07723F0
:1028B00021F09EE8872F762F05C0662371F096E8F9
:1028C000862F70E060E02AF09A95660F771F881FC8
:1028D000DAF7880F9695879597F90895990F00086C
:1028E000550FAA0BE0E8FEEF16161706E807F907E2
:1028F000C0F012161306E407F50798F0621B730B7D
:10290000840B950B39F40A2661F0232B242B252BFD
:1029100021F408950A2609F4A140A6958FEF811DA0
:10292000811D08950E94A5140C9419150E940B1581
:1029300038F00E94121520F0952311F00C94021526
:102940000C94081511240C944D150E942A1570F34F
:10295000959FC1F3950F50E0551F629FF001729F44
:10296000BB27F00DB11D639FAA27F00DB11DAA1F53
:10297000649F6627B00DA11D661F829F2227B00DA0
:10298000A11D621F739FB00DA11D621F839FA00D2B
:10299000611D221F749F3327A00D611D231F849F7B
:1029A000600D211D822F762F6A2F11249F575040D2
:1029B0009AF0F1F088234AF0EE0FFF1FBB1F661F4D
:1029C000771F881F91505040A9F79E3F510580F016
:1029D0000C9402150C944D155F3FE4F3983ED4F32C
:1029E000869577956795B795F795E7959F5FC1F7BA
:1029F000FE2B880F911D9695879597F90895992735
:102A00008827089597F99F6780E870E060E008954F
:102A10009FEF80EC089500240A94161617061806F6
:102A20000906089500240A941216130614060506D2
:102A30000895092E0394000C11F4882352F0BB0F63
:102A400040F4BF2B11F460FF04C06F5F7F4F8F4FC6
:102A50009F4F089557FD9058440F551F59F05F3F01
:102A600071F04795880F97FB991F61F09F3F79F0B0
:102A700087950895121613061406551FF2CF469532
:102A8000F1DF08C0161617061806991FF1CF8695B4
:102A90007105610508940895E894BB276627772798
:102AA000CB0197F908952F923F924F925F926F92C8
:102AB0007F928F929F92AF92BF92CF92DF92EF92CE
:102AC000FF920F931F93CF93DF93CDB7DEB7CA1B4F
:102AD000DB0B0FB6F894DEBF0FBECDBF09942A887A
:102AE000398848885F846E847D848C849B84AA8422
:102AF000B984C884DF80EE80FD800C811B81AA81AF
:102B0000B981CE0FD11D0FB6F894DEBF0FBECDBF79
:102B1000ED010895A1E21A2EAA1BBB1BFD010DC0F9
:102B2000AA1FBB1FEE1FFF1FA217B307E407F5077D
:102B300020F0A21BB30BE40BF50B661F771F881F59
:102B4000991F1A9469F760957095809590959B01EF
:102B5000AC01BD01CF010895EE0FFF1F0590F49168
:102B6000E02D09945058BB27AA270E94CA150C943F
:102B700019150E940B1538F00E94121520F039F437
:102B80009F3F19F426F40C9408150EF4E095E7FB2A
:102B90000C940215E92F0E942A1558F3BA17620700
:102BA00073078407950720F079F4A6F50C944C156B
:102BB0000EF4E0950B2EBA2FA02D0B01B901900158
:102BC0000C01CA01A0011124FF27591B99F0593F9C
:102BD00050F4503E68F11A16F040A22F232F342FE4
:102BE0004427585FF3CF469537952795A795F04032
:102BF0005395C9F77EF41F16BA0B620B730B840B47
:102C0000BAF09150A1F0FF0FBB1F661F771F881FFE
:102C1000C2F70EC0BA0F621F731F841F48F4879556
:102C200077956795B795F7959E3F08F0B0CF939548
:102C3000880F08F09927EE0F9795879508950E94C1
:102C400026166894B1110C944D1508950E94321502
:102C500088F09F5798F0B92F9927B751B0F0E1F05D
:102C6000660F771F881F991F1AF0BA95C9F714C00D
:102C7000B13091F00E944C15B1E008950C944C15C0
:102C8000672F782F8827B85F39F0B93FCCF3869546
:102C900077956795B395D9F73EF4909580957095A3
:102CA00061957F4F8F4F9F4F08950E946E14880B40
:102CB000990B08950F931F93CF93DF938230910563
:102CC00010F482E090E0E0914904F0914A0430E091
:102CD00020E0B0E0A0E0309799F42115310509F427
:102CE0004AC0281B390B24303105D8F58A819B81D5
:102CF0006115710589F1FB0193838283FE0111C087
:102D0000408151810281138148175907E0F048172B
:102D1000590799F4109761F012960C931297139635
:102D20001C933296CF01DF91CF911F910F9108959F
:102D30000093490410934A04F4CF2115310551F052
:102D40004217530738F0A901DB019A01BD01DF01E9
:102D5000F801C1CFEF01F9CF90934A048093490461
:102D6000CDCFFE01E20FF31F8193919322503109E1
:102D700039832883D7CF2091470430914804232BEF
:102D800041F42091020130910301309348042093D3
:102D9000470420910001309101012115310541F4D2
:102DA0002DB73EB74091040150910501241B350B0E
:102DB000E0914704F0914804E217F307A0F42E1BBA
:102DC0003F0B2817390778F0AC014E5F5F4F24178F
:102DD000350748F04E0F5F1F509348044093470457
:102DE000819391939FCFF0E0E0E09CCFCF93DF936E
:102DF0000097E9F0FC01329713821282A0914904F6
:102E0000B0914A04ED0130E020E01097A1F4208158
:102E10003181820F931F2091470430914804281775
:102E2000390709F061C0F0934804E0934704DF914B
:102E3000CF910895EA01CE17DF07E8F54A815B815B
:102E40009E0141155105B1F7E901FB83EA834991E0
:102E50005991C40FD51FEC17FD0761F48081918152
:102E60000296840F951FE90199838883828193815B
:102E70009B838A83F0E0E0E012968D919C911397FA
:102E80000097B9F52D913C911197CD010296820FD3
:102E9000931F20914704309148042817390739F6C9
:102EA000309751F510924A0410924904B0934804A7
:102EB000A0934704BCCFD383C28340815181840F48
:102EC000951FC817D90761F44E5F5F4F88819981BC
:102ED000480F591F518340838A819B81938382834A
:102EE0002115310509F0B0CFF0934A04E09349046D
:102EF0009ECFFD01DC01C0CF13821282D7CFB0E09C
:102F0000A0E0E5E8F7E10C9455158C01009751F429
:102F1000CB010E945A168C01C801CDB7DEB7E0E1A3
:102F20000C947115FC01E60FF71F9C01225031092A
:102F3000E217F30708F49DC0D901CD91DC911197F8
:102F4000C617D70798F0C530D10530F3CE010497E6
:102F50008617970708F3C61BD70B2297C193D19307
:102F60006D937C93CF010E94F616D6CF5B01AC1A0D
:102F7000BD0A4C018C0E9D1EA0914904B0914A04DB
:102F8000512C412CF12CE12C109731F58091470404
:102F9000909148048815990509F05CC046165706BB
:102FA00008F058C08091000190910101009741F410
:102FB0008DB79EB74091040150910501841B950B7C
:102FC000E817F90708F055C0F0934804E093470468
:102FD000F90171836083A0CF8D919C911197129616
:102FE0006C90129713967C901397A815B90559F514
:102FF0006C0142E0C40ED11CCA14DB0420F1AC0108
:103000004A195B09DA011296159780F06282738281
:1030100051834083D9016D937C93E114F10471F0E5
:10302000D7011396FC93EE93129776CF22968C0FCE
:103030009D1FF90191838083F301EFCFF0934A0440
:10304000E093490469CF4816590608F42C017D0124
:10305000D3019ACFCB010E945A167C01009749F008
:10306000AE01B8010E948718C8010E94F6168701B8
:1030700053CF10E000E050CF91110C94FF14805317
:103080008A5018F0865C0C944918089585FD0C94BC
:10309000FF14806291110C94FF1481568A51D8F765
:1030A000089591110C94FF1480538A5028F0865C87
:1030B000806281568650B0F7089591110C94FF14E8
:1030C0008F3711F08052D0F7089591110C94FF14AE
:1030D00081528E55D8F781580E943C188823B1F749
:1030E00081E008959111089581548A5108F4805E19
:1030F000855A0895FB01DC0104C08D91019080196F
:1031000021F441505040C8F7881B990B0895FB01EA
:10311000DC0102C001900D9241505040D8F7089553
:10312000FB01DC018D91019080190110D9F3990BFD
:103130000895FB01DC0101900D920020E1F7089554
:10314000AEE0B0E0E6EAF8E10C9461150D891E8965
:1031500086E08C831A8309838FEF9FE79E838D839C
:10316000AE01475E5F4F6F89788DCE0101960E9458
:10317000C3182F813885020F131FF80110822E9675
:10318000E4E00C947D15ABE0B0E0E9ECF8E10C94E0
:1031900053157C013B018A01FC0117821682838151
:1031A00081FFC8C1CE0101965C01F7019381F30153
:1031B00093FD859193FF81913F01882309F453C1C9
:1031C000853239F493FD859193FF81913F018532DA
:1031D00029F4B70190E00E94B31AE7CF912C212C7B
:1031E000312CFFE1F31538F08B3211F190F480327D
:1031F00009F1833229F137FC3CC020ED280F2A3039
:1032000050F536FE20C08AE0989E200D1124922EA3
:1032100006C08D3291F0803371F7689430F8F30175
:1032200093FD859193FF81913F018111DACF21C0F8
:10323000689431F8689432F8F2CF689433F8EFCF9D
:10324000689434F8ECCFEAE02E9E200D1124222E53
:10325000689435F8E4CF8E3229F436FC04C16894C2
:1032600036F8DDCF8C3619F4689437F8D8CF883625
:10327000B1F2982F9F7D95549330E0F08336A1F101
:103280008337C1F1833509F063C02801F2E04F0EA6
:10329000511CF801C080D180692D70E036FC02C05D
:1032A0006FEF7FEFC6010E949D1A4C01689437F8BA
:1032B00082010AC00C5F1F4FFFE3F98388248394C7
:1032C000912C6501E89437F833FE2DC0522C8114FF
:1032D000910471F5552009F468CFB70180E290E0C0
:1032E0000E94B31A5A94F6CFF801808189830E5F49
:1032F0001F4FE4CF2801F2E04F0E511CF801C080AF
:10330000D180692D70E036FC02C06FEF7FEFC601FF
:103310000E94A81A4C018201D5CFB70180E290E04B
:103320000E94B31A2A942814190409F0B0F7CECFDA
:10333000F60137FC859137FE81916F01B70190E06E
:103340000E94B31A51105A94F1E08F1A9108BFCF1E
:10335000843619F0893609F077C0F80137FE6BC062
:1033600060817181828193810C5F1F4FF32DFF7605
:103370003F2E97FF09C090958095709561957F4F7E
:103380008F4F9F4F689437F82AE030E0A5010E94E4
:10339000E31AC82ECA188C2C432C36FE0CC0E894B5
:1033A00040F8C91440F434FE05C032FC03C0F32DCC
:1033B000FE7E4F2E892C44FE95C0FE01EC0DF11DC2
:1033C0008081803309F087C0242D297E422E842DF0
:1033D0008870582E43FC95C040FE8FC09C2C8214F0
:1033E00018F42C0C922C981844FE91C0B70180E37D
:1033F00090E00E94B31A42FE09C088E790E041FEC7
:1034000002C088E590E0B7010E94B31AC91408F41D
:103410008AC0CA94D12C9FEFC91AD90ACA0CDB1CE6
:10342000F60182916F01B70190E00E94B31AAC14CB
:10343000BD04B1F74FCF60817181072E000C880B5E
:10344000990B0E5F1F4F92CFD32CE894D4F82AE04B
:1034500030E0853739F1232D297FD22E8F3601F1C7
:1034600048F48835A9F0F701868197812B96E2E12F
:103470000C946F15803749F08837A9F7D4FE02C045
:103480006894D2F820E130E00DC06894D4F8F6CF0B
:1034900034FE03C0822F8660D82E20E132E002C0C5
:1034A00028E030E0F801D7FE0FC060817181828191
:1034B00093810C5F1F4FA5010E94E31AC82ECA1802
:1034C0003D2CE89437F867CF6081718190E080E00F
:1034D0000E5F1F4FF0CF42FC02C0839478CF8394DD
:1034E000839475CF842D867809F471CFF6CFB70118
:1034F00080E290E00E94B31A83948214C0F3512CAE
:1035000073CF522C5818821408F46ECFF8CF842D44
:10351000867809F47BCF8BE241FE80E247FC8DE2A6
:10352000B70190E071CFB70180E390E00E94B31A39
:103530009A946CCF8FEF9FEF99CFFC01059061506B
:1035400070400110D8F7809590958E0F9F1F0895B9
:10355000FC016150704001900110D8F78095909562
:103560008E0F9F1F08950F931F93CF93DF93182FF4
:10357000092FEB018B8181FD09C01FEF0FEF812F18
:10358000902FDF91CF911F910F91089582FF14C06A
:103590002E813F818C819D81281739073CF4E88179
:1035A000F981CF0101969983888310838E819F8151
:1035B00001969F838E83E3CFE885F985812F099556
:1035C000892BA1F3DACFFA01AA27283051F1203153
:1035D00081F1E8946F936E7F6E5F7F4F8F4F9F4FA7
:1035E000AF4FB1E03ED0B4E03CD0670F781F891FE9
:1035F0009A1FA11D680F791F8A1F911DA11D6A0FB7
:10360000711D811D911DA11D20D009F468943F9169
:103610002AE0269F11243019305D3193DEF6CF0168
:103620000895462F4770405D4193B3E00FD0C9F72E
:10363000F6CF462F4F70405D4A3318F0495D31FD9B
:103640004052419302D0A9F7EACFB4E0A6959795EE
:10365000879577956795BA95C9F7009761057105C4
:1036600008959B01AC010A2E06945795479537950E
:103670002795BA95C9F7620F731F841F951FA01D68
:10368000089510E0C2E6D0E004C0FE010E94AC152F
:0C3690002196C336D107C9F7F894FFCF8C
:10369C0000004B048000A90D970D850D0600080055
:1036AC000A000C000000000084035302B602CE0393
:1036BC00E902C702DB023132004F55543A255B5BFD
:1036CC00312D345D252D5B302D315D2C5B312D344E
:1036DC005D252D5B302D315D2C5B312D345D252D21
:1036EC005B302D315D2C5B312D345D252D5B302D08
:1036FC00315D255D0047440043533A5B312D325D0B
:10370C00004F6B00436F6D6D616E64206E6F7420A3
:10371C0065786973740054656D7065726174757247
:10372C00652053656E736F72204572726F72203A0A
:10373C002056657269667920636F6E6E6563746975
:10374C006F6E73005468617420636F6D6D616E648D
:10375C00206E6F7420776F726B20696E20746869AD
:10376C0073207374617465007B2264617461223A06
:10377C0025732C22657272223A25642C226D736794
:10378C00223A222573227D3B007B226461746122E4
:10379C003A226E756C6C222C22657272223A256468
:1037AC002C226D7367223A222573227D3B006E75A5
:1037BC006C6C007B22494E73223A207B2231223AD8
:1037CC00207B226461746154797065223A20225402
:1037DC00222C202264617461223A2025647D2C20E5
:1037EC002232223A207B2264617461547970652202
:1037FC003A202248222C202264617461223A20252E
:10380C00647D2C202233223A207B22646174615423
:10381C00797065223A202242222C20226461746144
:10382C00223A2025647D7D2C20224F555473223A58
:10383C00207B2231223A207B2264617461223A205F
:10384C0025647D2C202232223A207B226461746113
:10385C00223A2025647D2C202233223A207B2264BC
:10386C00617461223A2025647D2C202234223A2076
:10387C007B2264617461223A2025647D7D7D007B0E
:10388C00224F555473223A207B2231223A207B223C
:10389C0064617461223A2025647D2C202232223A04
:1038AC00207B2264617461223A2025647D2C2022C5
:1038BC0033223A207B2264617461223A2025647D94
:1038CC002C202234223A207B2264617461223A201B
:1038DC0025647D7D7D00310030007B227374617422
:1038EC0065223A222563227D007B224F5554732298
:0E38FC003A222564256425642564227D00009F
:00000001FF
